{"abi":[{"type":"constructor","inputs":[],"stateMutability":"nonpayable"},{"type":"function","name":"CLOCK_MODE","inputs":[],"outputs":[{"name":"","type":"string","internalType":"string"}],"stateMutability":"view"},{"type":"function","name":"DOMAIN_SEPARATOR","inputs":[],"outputs":[{"name":"","type":"bytes32","internalType":"bytes32"}],"stateMutability":"view"},{"type":"function","name":"allowance","inputs":[{"name":"owner","type":"address","internalType":"address"},{"name":"spender","type":"address","internalType":"address"}],"outputs":[{"name":"","type":"uint256","internalType":"uint256"}],"stateMutability":"view"},{"type":"function","name":"approve","inputs":[{"name":"spender","type":"address","internalType":"address"},{"name":"value","type":"uint256","internalType":"uint256"}],"outputs":[{"name":"","type":"bool","internalType":"bool"}],"stateMutability":"nonpayable"},{"type":"function","name":"balanceOf","inputs":[{"name":"account","type":"address","internalType":"address"}],"outputs":[{"name":"","type":"uint256","internalType":"uint256"}],"stateMutability":"view"},{"type":"function","name":"burn","inputs":[{"name":"from","type":"address","internalType":"address"},{"name":"amount","type":"uint256","internalType":"uint256"}],"outputs":[],"stateMutability":"nonpayable"},{"type":"function","name":"checkpoints","inputs":[{"name":"account","type":"address","internalType":"address"},{"name":"pos","type":"uint32","internalType":"uint32"}],"outputs":[{"name":"","type":"tuple","internalType":"struct Checkpoints.Checkpoint208","components":[{"name":"_key","type":"uint48","internalType":"uint48"},{"name":"_value","type":"uint208","internalType":"uint208"}]}],"stateMutability":"view"},{"type":"function","name":"clock","inputs":[],"outputs":[{"name":"","type":"uint48","internalType":"uint48"}],"stateMutability":"view"},{"type":"function","name":"decimals","inputs":[],"outputs":[{"name":"","type":"uint8","internalType":"uint8"}],"stateMutability":"view"},{"type":"function","name":"delegate","inputs":[{"name":"delegatee","type":"address","internalType":"address"}],"outputs":[],"stateMutability":"nonpayable"},{"type":"function","name":"delegateBySig","inputs":[{"name":"delegatee","type":"address","internalType":"address"},{"name":"nonce","type":"uint256","internalType":"uint256"},{"name":"expiry","type":"uint256","internalType":"uint256"},{"name":"v","type":"uint8","internalType":"uint8"},{"name":"r","type":"bytes32","internalType":"bytes32"},{"name":"s","type":"bytes32","internalType":"bytes32"}],"outputs":[],"stateMutability":"nonpayable"},{"type":"function","name":"delegates","inputs":[{"name":"account","type":"address","internalType":"address"}],"outputs":[{"name":"","type":"address","internalType":"address"}],"stateMutability":"view"},{"type":"function","name":"eip712Domain","inputs":[],"outputs":[{"name":"fields","type":"bytes1","internalType":"bytes1"},{"name":"name","type":"string","internalType":"string"},{"name":"version","type":"string","internalType":"string"},{"name":"chainId","type":"uint256","internalType":"uint256"},{"name":"verifyingContract","type":"address","internalType":"address"},{"name":"salt","type":"bytes32","internalType":"bytes32"},{"name":"extensions","type":"uint256[]","internalType":"uint256[]"}],"stateMutability":"view"},{"type":"function","name":"getPastTotalSupply","inputs":[{"name":"timepoint","type":"uint256","internalType":"uint256"}],"outputs":[{"name":"","type":"uint256","internalType":"uint256"}],"stateMutability":"view"},{"type":"function","name":"getPastVotes","inputs":[{"name":"account","type":"address","internalType":"address"},{"name":"timepoint","type":"uint256","internalType":"uint256"}],"outputs":[{"name":"","type":"uint256","internalType":"uint256"}],"stateMutability":"view"},{"type":"function","name":"getVotes","inputs":[{"name":"account","type":"address","internalType":"address"}],"outputs":[{"name":"","type":"uint256","internalType":"uint256"}],"stateMutability":"view"},{"type":"function","name":"mint","inputs":[{"name":"to","type":"address","internalType":"address"},{"name":"amount","type":"uint256","internalType":"uint256"}],"outputs":[],"stateMutability":"nonpayable"},{"type":"function","name":"name","inputs":[],"outputs":[{"name":"","type":"string","internalType":"string"}],"stateMutability":"view"},{"type":"function","name":"nonces","inputs":[{"name":"owner","type":"address","internalType":"address"}],"outputs":[{"name":"","type":"uint256","internalType":"uint256"}],"stateMutability":"view"},{"type":"function","name":"numCheckpoints","inputs":[{"name":"account","type":"address","internalType":"address"}],"outputs":[{"name":"","type":"uint32","internalType":"uint32"}],"stateMutability":"view"},{"type":"function","name":"owner","inputs":[],"outputs":[{"name":"","type":"address","internalType":"address"}],"stateMutability":"view"},{"type":"function","name":"permit","inputs":[{"name":"owner","type":"address","internalType":"address"},{"name":"spender","type":"address","internalType":"address"},{"name":"value","type":"uint256","internalType":"uint256"},{"name":"deadline","type":"uint256","internalType":"uint256"},{"name":"v","type":"uint8","internalType":"uint8"},{"name":"r","type":"bytes32","internalType":"bytes32"},{"name":"s","type":"bytes32","internalType":"bytes32"}],"outputs":[],"stateMutability":"nonpayable"},{"type":"function","name":"renounceOwnership","inputs":[],"outputs":[],"stateMutability":"nonpayable"},{"type":"function","name":"symbol","inputs":[],"outputs":[{"name":"","type":"string","internalType":"string"}],"stateMutability":"view"},{"type":"function","name":"totalSupply","inputs":[],"outputs":[{"name":"","type":"uint256","internalType":"uint256"}],"stateMutability":"view"},{"type":"function","name":"transfer","inputs":[{"name":"to","type":"address","internalType":"address"},{"name":"value","type":"uint256","internalType":"uint256"}],"outputs":[{"name":"","type":"bool","internalType":"bool"}],"stateMutability":"nonpayable"},{"type":"function","name":"transferFrom","inputs":[{"name":"from","type":"address","internalType":"address"},{"name":"to","type":"address","internalType":"address"},{"name":"value","type":"uint256","internalType":"uint256"}],"outputs":[{"name":"","type":"bool","internalType":"bool"}],"stateMutability":"nonpayable"},{"type":"function","name":"transferOwnership","inputs":[{"name":"newOwner","type":"address","internalType":"address"}],"outputs":[],"stateMutability":"nonpayable"},{"type":"event","name":"Approval","inputs":[{"name":"owner","type":"address","indexed":true,"internalType":"address"},{"name":"spender","type":"address","indexed":true,"internalType":"address"},{"name":"value","type":"uint256","indexed":false,"internalType":"uint256"}],"anonymous":false},{"type":"event","name":"DelegateChanged","inputs":[{"name":"delegator","type":"address","indexed":true,"internalType":"address"},{"name":"fromDelegate","type":"address","indexed":true,"internalType":"address"},{"name":"toDelegate","type":"address","indexed":true,"internalType":"address"}],"anonymous":false},{"type":"event","name":"DelegateVotesChanged","inputs":[{"name":"delegate","type":"address","indexed":true,"internalType":"address"},{"name":"previousVotes","type":"uint256","indexed":false,"internalType":"uint256"},{"name":"newVotes","type":"uint256","indexed":false,"internalType":"uint256"}],"anonymous":false},{"type":"event","name":"EIP712DomainChanged","inputs":[],"anonymous":false},{"type":"event","name":"OwnershipTransferred","inputs":[{"name":"previousOwner","type":"address","indexed":true,"internalType":"address"},{"name":"newOwner","type":"address","indexed":true,"internalType":"address"}],"anonymous":false},{"type":"event","name":"Transfer","inputs":[{"name":"from","type":"address","indexed":true,"internalType":"address"},{"name":"to","type":"address","indexed":true,"internalType":"address"},{"name":"value","type":"uint256","indexed":false,"internalType":"uint256"}],"anonymous":false},{"type":"error","name":"CheckpointUnorderedInsertion","inputs":[]},{"type":"error","name":"ECDSAInvalidSignature","inputs":[]},{"type":"error","name":"ECDSAInvalidSignatureLength","inputs":[{"name":"length","type":"uint256","internalType":"uint256"}]},{"type":"error","name":"ECDSAInvalidSignatureS","inputs":[{"name":"s","type":"bytes32","internalType":"bytes32"}]},{"type":"error","name":"ERC20ExceededSafeSupply","inputs":[{"name":"increasedSupply","type":"uint256","internalType":"uint256"},{"name":"cap","type":"uint256","internalType":"uint256"}]},{"type":"error","name":"ERC20InsufficientAllowance","inputs":[{"name":"spender","type":"address","internalType":"address"},{"name":"allowance","type":"uint256","internalType":"uint256"},{"name":"needed","type":"uint256","internalType":"uint256"}]},{"type":"error","name":"ERC20InsufficientBalance","inputs":[{"name":"sender","type":"address","internalType":"address"},{"name":"balance","type":"uint256","internalType":"uint256"},{"name":"needed","type":"uint256","internalType":"uint256"}]},{"type":"error","name":"ERC20InvalidApprover","inputs":[{"name":"approver","type":"address","internalType":"address"}]},{"type":"error","name":"ERC20InvalidReceiver","inputs":[{"name":"receiver","type":"address","internalType":"address"}]},{"type":"error","name":"ERC20InvalidSender","inputs":[{"name":"sender","type":"address","internalType":"address"}]},{"type":"error","name":"ERC20InvalidSpender","inputs":[{"name":"spender","type":"address","internalType":"address"}]},{"type":"error","name":"ERC2612ExpiredSignature","inputs":[{"name":"deadline","type":"uint256","internalType":"uint256"}]},{"type":"error","name":"ERC2612InvalidSigner","inputs":[{"name":"signer","type":"address","internalType":"address"},{"name":"owner","type":"address","internalType":"address"}]},{"type":"error","name":"ERC5805FutureLookup","inputs":[{"name":"timepoint","type":"uint256","internalType":"uint256"},{"name":"clock","type":"uint48","internalType":"uint48"}]},{"type":"error","name":"ERC6372InconsistentClock","inputs":[]},{"type":"error","name":"InvalidAccountNonce","inputs":[{"name":"account","type":"address","internalType":"address"},{"name":"currentNonce","type":"uint256","internalType":"uint256"}]},{"type":"error","name":"InvalidShortString","inputs":[]},{"type":"error","name":"OwnableInvalidOwner","inputs":[{"name":"owner","type":"address","internalType":"address"}]},{"type":"error","name":"OwnableUnauthorizedAccount","inputs":[{"name":"account","type":"address","internalType":"address"}]},{"type":"error","name":"SafeCastOverflowedUintDowncast","inputs":[{"name":"bits","type":"uint8","internalType":"uint8"},{"name":"value","type":"uint256","internalType":"uint256"}]},{"type":"error","name":"StringTooLong","inputs":[{"name":"str","type":"string","internalType":"string"}]},{"type":"error","name":"VotesExpiredSignature","inputs":[{"name":"expiry","type":"uint256","internalType":"uint256"}]}],"bytecode":{"object":"0x6101606040523461020e57610012610284565b61001a610284565b9061002361025a565b906320a3a7ab60e11b602083015261003961026f565b603160f81b60208201908152845190949193916001600160401b0382116102095761006e826100696003546102fe565b610336565b602090601f83116001146101825791806100a2926100aa95945f92610177575b50508160011b915f199060031b1c19161790565b6003556103d5565b6100b38161059d565b610120526100c082610692565b610140526020815191012060e052519020610100524660a0526100e1610784565b6080523060c0523315610163576100f733610555565b61011261010c61010760126102d3565b6102e9565b336104ae565b604051611e869081610d48823960805181611288015260a05181611345015260c05181611252015260e051816112d7015261010051816112fd015261012051816108540152610140518161087d0152f35b631e4fbdf760e01b5f90815260045260245ffd5b015190505f8061008e565b60035f52601f19831691907fc2575a0e9e593c00f959f8c92f12db2869c3395a3b0502d05e2516446f71f85b925f5b8181106101f157509160019391856100aa979694106101d9575b505050811b016003556103d5565b01515f1960f88460031b161c191690555f80806101cb565b929360206001819287860151815501950193016101b1565b610212565b5f80fd5b634e487b7160e01b5f52604160045260245ffd5b601f909101601f19168101906001600160401b0382119082101761020957604052565b60405190610258604083610226565b565b60405190610269604083610226565b60048252565b6040519061027e604083610226565b60018252565b60405190610293604083610226565b601582527f4175726120476f7665726e616e636520546f6b656e00000000000000000000006020830152565b634e487b7160e01b5f52601160045260245ffd5b60ff16604d81116102e457600a0a90565b6102bf565b9081620f42400291620f42408304036102e457565b90600182811c9216801561032c575b602083101461031857565b634e487b7160e01b5f52602260045260245ffd5b91607f169161030d565b601f8111610342575050565b60035f5260205f20906020601f840160051c8301931061037c575b601f0160051c01905b818110610371575050565b5f8155600101610366565b909150819061035d565b601f821161039357505050565b5f5260205f20906020601f840160051c830193106103cb575b601f0160051c01905b8181106103c0575050565b5f81556001016103b5565b90915081906103ac565b80519091906001600160401b038111610209576103fe816103f76004546102fe565b6004610386565b602092601f82116001146104325761042d929382915f926101775750508160011b915f199060031b1c19161790565b600455565b60045f52601f198216937f8a35acfbc15ff81a39ae7d344fd709f28e8600b4aa8c65c6b64bfe7fe36bd19b915f5b868110610496575083600195961061047e575b505050811b01600455565b01515f1960f88460031b161c191690555f8080610473565b91926020600181928685015181550194019201610460565b91906001600160a01b0383168015610542576002548281018091116102e4576002555f81815260208181526040808320805486019055518481527fddf252ad1be2c89b69c2b068fc378daa952ba7f163c4a11628f55a4df523b3ef9190a3600254926001600160d01b0380851161052b5750610258929350610876565b630e58ae9360e11b5f52600485905260245260445ffd5b63ec442f0560e01b5f525f60045260245ffd5b600b80546001600160a01b039283166001600160a01b0319821681179092559091167f8be0079c531659141344cd1fd0a4f28419497f9722a3daafe3b4186f6b6457e05f80a3565b908151602081105f146105b85750906105b590610804565b90565b6001600160401b038111610209576105dc816105d56005546102fe565b6005610386565b602092601f82116001146106135761060b929382915f926101775750508160011b915f199060031b1c19161790565b60055560ff90565b60055f52601f198216937f036b6384b5eca791c62761152d0c79bb0604c104a5fb6f4eb0703f3154bb3db0915f5b86811061067a5750836001959610610662575b505050811b0160055560ff90565b01515f1960f88460031b161c191690555f8080610654565b91926020600181928685015181550194019201610641565b908151602081105f146106aa5750906105b590610804565b6001600160401b038111610209576106ce816106c76006546102fe565b6006610386565b602092601f8211600114610705576106fd929382915f926101775750508160011b915f199060031b1c19161790565b60065560ff90565b60065f52601f198216937ff652222313e28459528d920b65115c16c04f3efc82aaedc97be59f3f377c0d3f915f5b86811061076c5750836001959610610754575b505050811b0160065560ff90565b01515f1960f88460031b161c191690555f8080610746565b91926020600181928685015181550194019201610733565b60e051610100516040519060208201927f8b73c3c69bb8fe3d512ecc4cf759cc79239f7b179b0ffacaa9a75d522b39400f8452604083015260608201524660808201523060a082015260a081526107dc60c082610226565b51902090565b6020815191015190602081106107f6575090565b5f199060200360031b1b1690565b601f81511161081c57610816816107e2565b90511790565b6040519063305a27a960e01b825260206004830152818151918260248301525f5b83811061085e575050815f6044809484010152601f80199101168101030190fd5b6020828201810151604487840101528593500161083d565b9061088081610975565b9165ffffffffffff431161095d57600a548061092757506108ba6108aa610258945f5b6001610ceb565b65ffffffffffff4316600a610c15565b50506001600160a01b0316801561090f575b60086020527f5eff886ea0ce6ca488a3d6e336d6c0f75f46d19b42c06ce5ee98e42c96d256c7545f9182526040909120546001600160a01b039081169116610aa4565b61092061091b83610975565b6109a6565b50506108cc565b92835f198101116102e457600a5f525f516020612bce5f395f51905f5290930154610258936108ba916108aa919060301c6108a3565b6306dfcc6560e41b5f5260306004524360245260445ffd5b6001600160d01b03811161098f576001600160d01b031690565b6306dfcc6560e41b5f5260d060045260245260445ffd5b65ffffffffffff431161095d57600a54806109d057506108aa6109cc915f5b6002610ceb565b9091565b805f198101116102e457600a5f525f516020612bce5f395f51905f5201546109cc916108aa9160301c6109c5565b65ffffffffffff431161095d57805480610a325750610a226109cc925f6002610ceb565b9065ffffffffffff431690610c15565b805f198101116102e4575f82815260209020015f1901546109cc92610a229160301c6109c5565b65ffffffffffff431161095d57805480610a7d5750610a226109cc925f6001610ceb565b805f198101116102e4575f82815260209020015f1901546109cc92610a229160301c6108a3565b6001600160a01b03808316939291908116908185141580610b97575b610acc575b5050505050565b81610b3d575b505082610ae1575b8080610ac5565b6001600160a01b03165f9081526009602052604090205f516020612bee5f395f51905f5291610b1a91610b149091610975565b90610a59565b604080516001600160d01b039384168152919092166020820152a25f8080610ada565b6001600160a01b03165f9081526009602052604090205f516020612bee5f395f51905f5290610b7590610b6f86610975565b906109fe565b604080516001600160d01b039384168152919092166020820152a25f80610ad2565b50831515610ac0565b5f198101919082116102e457565b908154680100000000000000008110156102095760018101808455811015610c01575f9283526020928390208251929093015160301b65ffffffffffff191665ffffffffffff9290921691909117910155565b634e487b7160e01b5f52603260045260245ffd5b80549293928015610cc157610c2c610c3791610ba0565b825f5260205f200190565b8054603081901c9365ffffffffffff91821692918116808411610cb257879303610c7e5750610c7a92509065ffffffffffff82549181199060301b169116179055565b9190565b915050610c7a91610c9e610c90610249565b65ffffffffffff9093168352565b6001600160d01b0386166020830152610bae565b632520601d60e01b5f5260045ffd5b5090610ce691610cd2610c90610249565b6001600160d01b0385166020830152610bae565b5f9190565b91909180600114610d2d57600214610d1157634e487b7160e01b5f52605160045260245ffd5b6001600160d01b03908116918116919091039081116102e45790565b506001600160d01b03918216908216019081116102e4579056fe60806040526004361015610011575f80fd5b5f3560e01c806306fdde03146101d4578063095ea7b3146101cf57806318160ddd146101ca57806323b872dd146101c5578063313ce567146101c05780633644e515146101bb5780633a46b1a8146101b657806340c10f19146101b15780634bf5d7e9146101ac578063587cde1e146101a75780635c19a95c146101a25780636fcfff451461019d57806370a0823114610198578063715018a6146101935780637ecebe001461018e57806384b0196e146101895780638da5cb5b146101845780638e539e8c1461017f57806391ddadf41461017a57806395d89b41146101755780639ab24eb0146101705780639dc29fac1461016b578063a9059cbb14610166578063c3cda52014610161578063d505accf1461015c578063dd62ed3e14610157578063f1127ed8146101525763f2fde38b1461014d575f80fd5b610fa3565b610ef1565b610e9a565b610d76565b610c67565b610c21565b610b37565b610af0565b610a4b565b610a20565b610961565b610939565b61083c565b610804565b6107a9565b610771565b61070f565b6106ed565b6106ad565b61061d565b610546565b610461565b61043f565b610424565b610384565b610367565b610336565b61022c565b91908251928382525f5b848110610203575050825f602080949584010152601f8019910116010190565b806020809284010151828286010152016101e3565b9060206102299281815201906101d9565b90565b34610306575f366003190112610306576040515f60035461024c8161103d565b80845290600181169081156102e25750600114610284575b610280836102748185038261112b565b60405191829182610218565b0390f35b60035f9081527fc2575a0e9e593c00f959f8c92f12db2869c3395a3b0502d05e2516446f71f85b939250905b8082106102c857509091508101602001610274610264565b9192600181602092548385880101520191019092916102b0565b60ff191660208086019190915291151560051b840190910191506102749050610264565b5f80fd5b600435906001600160a01b038216820361030657565b602435906001600160a01b038216820361030657565b346103065760403660031901126103065761035c61035261030a565b60243590336114d4565b602060405160018152f35b34610306575f366003190112610306576020600254604051908152f35b346103065760603660031901126103065761039d61030a565b6103a5610320565b6001600160a01b0382165f9081526001602090815260408083203384529091529020549160443591905f1984106103ed575b6103e19350611176565b60405160018152602090f35b82841061040957610404836103e19503338361156f565b6103d7565b8284637dc7a0d960e11b5f523360045260245260445260645ffd5b34610306575f36600319011261030657602060405160128152f35b34610306575f36600319011261030657602061045961124f565b604051908152f35b346103065760403660031901126103065761047a61030a565b6001600160a01b03165f90815260096020526040902061049b60243561136b565b8154905f8291600584116104ee575b6104b5935084611760565b90816104d357505060205f5b6040516001600160d01b039091168152f35b6104de6020926113a4565b905f52815f20015460301c6104c1565b91926104f981611602565b8103908111610541576104b593855f5265ffffffffffff8260205f2001541665ffffffffffff8516105f1461052f5750916104aa565b92915061053b906113b2565b906104aa565b611029565b346103065760403660031901126103065761055f61030a565b60243561056a6113cd565b6001600160a01b038216801561060a5761058e610589836002546113c0565b600255565b6001600160a01b0383165f90815260208181526040808320805486019055518481527fddf252ad1be2c89b69c2b068fc378daa952ba7f163c4a11628f55a4df523b3ef9190a3600254916001600160d01b038084116105f3576105f18383611bd4565b005b630e58ae9360e11b5f52600484905260245260445ffd5b63ec442f0560e01b5f525f60045260245ffd5b34610306575f36600319011261030657610636436115b5565b65ffffffffffff80610647436115b5565b1691160361069e5761028060405161066060408261112b565b601d81527f6d6f64653d626c6f636b6e756d6265722666726f6d3d64656661756c7400000060208201526040519182916020835260208301906101d9565b6301bfc1c560e61b5f5260045ffd5b34610306576020366003190112610306576001600160a01b036106ce61030a565b165f526008602052602060018060a01b0360405f205416604051908152f35b34610306576020366003190112610306576105f161070961030a565b336113f4565b34610306576020366003190112610306576001600160a01b0361073061030a565b165f52600960205260405f205463ffffffff811161075a5760405163ffffffff9091168152602090f35b6306dfcc6560e41b5f52602060045260245260445ffd5b3461030657602036600319011261030657602061045961078f61030a565b6001600160a01b03165f9081526020819052604090205490565b34610306575f366003190112610306576107c16113cd565b600b80546001600160a01b031981169091555f906001600160a01b03167f8be0079c531659141344cd1fd0a4f28419497f9722a3daafe3b4186f6b6457e08280a3005b34610306576020366003190112610306576001600160a01b0361082561030a565b165f526007602052602060405f2054604051908152f35b34610306575f366003190112610306576108e06108787f00000000000000000000000000000000000000000000000000000000000000006118e6565b6108a17f0000000000000000000000000000000000000000000000000000000000000000611946565b60206040516108b0828261112b565b5f8152816108ee81830194601f198301368737604051978897600f60f81b895260e0858a015260e08901906101d9565b9087820360408901526101d9565b914660608701523060808701525f60a087015285830360c087015251918281520192915f5b82811061092257505050500390f35b835185528695509381019392810192600101610913565b34610306575f36600319011261030657600b546040516001600160a01b039091168152602090f35b346103065760203660031901126103065761097d60043561136b565b600a54905f8291600584116109cc575b6109999350600a611760565b806109aa57506040515f8152602090f35b6109c76109b86020926113a4565b600a5f52825f20015460301c90565b6104c1565b91926109d781611602565b81039081116105415761099993600a5f5265ffffffffffff8260205f2001541665ffffffffffff8516105f14610a0e57509161098d565b929150610a1a906113b2565b9061098d565b34610306575f366003190112610306576020610a3b436115b5565b65ffffffffffff60405191168152f35b34610306575f366003190112610306576040515f600454610a6b8161103d565b80845290600181169081156102e25750600114610a9257610280836102748185038261112b565b60045f9081527f8a35acfbc15ff81a39ae7d344fd709f28e8600b4aa8c65c6b64bfe7fe36bd19b939250905b808210610ad657509091508101602001610274610264565b919260018160209254838588010152019101909291610abe565b34610306576020366003190112610306576001600160a01b03610b1161030a565b165f526009602052602060018060d01b03610b2e60405f20611475565b16604051908152f35b3461030657604036600319011261030657610b5061030a565b602435610b5b6113cd565b6001600160a01b038216918215610c0e576001600160a01b0381165f90815260208190526040902054828110610beb576105f193835f9203610bac8460018060a01b03165f525f60205260405f2090565b55610bba8460025403600255565b6040518481527fddf252ad1be2c89b69c2b068fc378daa952ba7f163c4a11628f55a4df523b3ef90602090a3611c57565b63391434e360e21b5f526001600160a01b0390911660045260245260445260645ffd5b634b637e8f60e11b5f525f60045260245ffd5b346103065760403660031901126103065761035c610c3d61030a565b6024359033611176565b6064359060ff8216820361030657565b6084359060ff8216820361030657565b346103065760c036600319011261030657610c8061030a565b60243590604435610c8f610c47565b6084359060a43592804211610d645791610d149391610d06610d0b9460405160208101917fe48329057bfd03d55e49b547132e39cffd9c1820ad7b9d4c5307691425d15adf835260018060a01b038a1660408301528a6060830152608082015260808152610cfe60a08261112b565b51902061149f565b61197d565b90929192611a28565b6001600160a01b0381165f908152600760205260409020805460018101909155809303610d45576105f192506113f4565b90506301d4b62360e61b5f5260018060a01b031660045260245260445ffd5b632341d78760e11b5f5260045260245ffd5b346103065760e036600319011261030657610d8f61030a565b610d97610320565b6044359060643592610da7610c57565b60a43560c43590864211610e87576001600160a01b0384165f908152600760205260409020805460018101909155610e4c9390610e47909860405160208101917f6e71edae12b1b97f4d1f60370fef10105fa2faae0126114a169c64845d6126c9835260018060a01b0389169b8c604084015260018060a01b038b1660608401528b608084015260a083015260c082015260c08152610cfe60e08261112b565b6114c5565b936001600160a01b03851603610e66576105f193506114d4565b6325c0072360e11b5f526001600160a01b038085166004521660245260445ffd5b8663313c898160e11b5f5260045260245ffd5b34610306576040366003190112610306576020610ee8610eb861030a565b610ec0610320565b6001600160a01b039182165f9081526001855260408082209290931681526020919091522090565b54604051908152f35b3461030657604036600319011261030657610f0a61030a565b6024359063ffffffff821682036103065761028091610f5991610f2b61115e565b50610f3461115e565b506001600160a01b03165f908152600960205260409020610f5361115e565b50611aa4565b5060405190610f678261110a565b5465ffffffffffff811680835260309190911c60209283019081526040805192835290516001600160d01b031692820192909252918291820190565b3461030657602036600319011261030657610fbc61030a565b610fc46113cd565b6001600160a01b0316801561101657600b80546001600160a01b0319811683179091556001600160a01b03167f8be0079c531659141344cd1fd0a4f28419497f9722a3daafe3b4186f6b6457e05f80a3005b631e4fbdf760e01b5f525f60045260245ffd5b634e487b7160e01b5f52601160045260245ffd5b90600182811c9216801561106b575b602083101461105757565b634e487b7160e01b5f52602260045260245ffd5b91607f169161104c565b5f92918154916110848361103d565b80835292600181169081156110d957506001146110a057505050565b5f9081526020812093945091925b8383106110bf575060209250010190565b6001816020929493945483858701015201910191906110ae565b915050602093945060ff929192191683830152151560051b010190565b634e487b7160e01b5f52604160045260245ffd5b6040810190811067ffffffffffffffff82111761112657604052565b6110f6565b90601f8019910116810190811067ffffffffffffffff82111761112657604052565b6040519061115c60408361112b565b565b6040519061116b8261110a565b5f6020838281520152565b6001600160a01b038116939291908415610c0e576001600160a01b038216801561060a576001600160a01b0382165f9081526020819052604090205495848710611229578461115c9697036111da8460018060a01b03165f525f60205260405f2090565b556001600160a01b0384165f9081526020819052604090208054860190556040518581527fddf252ad1be2c89b69c2b068fc378daa952ba7f163c4a11628f55a4df523b3ef90602090a3611cd2565b63391434e360e21b5f526001600160a01b0383166004526024879052604485905260645ffd5b307f00000000000000000000000000000000000000000000000000000000000000006001600160a01b03161480611342575b156112aa577f000000000000000000000000000000000000000000000000000000000000000090565b60405160208101907f8b73c3c69bb8fe3d512ecc4cf759cc79239f7b179b0ffacaa9a75d522b39400f82527f000000000000000000000000000000000000000000000000000000000000000060408201527f000000000000000000000000000000000000000000000000000000000000000060608201524660808201523060a082015260a0815261133c60c08261112b565b51902090565b507f00000000000000000000000000000000000000000000000000000000000000004614611281565b65ffffffffffff61137b436115b5565b168082101561138e5750610229906115b5565b90637669fc0f60e11b5f5260045260245260445ffd5b5f1981019190821161054157565b906001820180921161054157565b9190820180921161054157565b600b546001600160a01b031633036113e157565b63118cdaa760e01b5f523360045260245ffd5b6001600160a01b038181165f81815260086020526040812080548685166001600160a01b03198216811790925561115c9694169461146f9390928691907f3134e8a2e6d97e929a7e54011ea5485d7d196dd5f0ba4d4ef95803e8e3fc257f9080a46001600160a01b03165f9081526020819052604090205490565b916117c4565b805490816114835750505f90565b815f19810111610541575f525f199060205f2001015460301c90565b6042906114aa61124f565b906040519161190160f01b8352600283015260228201522090565b916102299391610d0b9361197d565b6001600160a01b031690811561155c576001600160a01b038116928315611549578061153c7f8c5be1e5ebec7d5bd14f71427d1e84f3dd0314c0f7b2291e5b200ac8c7c3b92593855f52600160205260405f209060018060a01b03165f5260205260405f2090565b55604051908152602090a3565b634a1406b160e11b5f525f60045260245ffd5b63e602df0560e01b5f525f60045260245ffd5b6001600160a01b031690811561155c576001600160a01b03811615611549576115b2915f52600160205260405f209060018060a01b03165f5260205260405f2090565b55565b65ffffffffffff81116115cd5765ffffffffffff1690565b6306dfcc6560e41b5f52603060045260245260445ffd5b81156115ee570490565b634e487b7160e01b5f52601260045260245ffd5b600181111561022957806001600160801b821015611723575b6116c96116bf6116b56116ab6116a16116976116866116d09760048a600160401b6116d59c1015611716575b640100000000811015611709575b620100008110156116fc575b6101008110156116ef575b60108110156116e2575b10156116da575b60030260011c90565b611690818b6115e4565b0160011c90565b611690818a6115e4565b61169081896115e4565b61169081886115e4565b61169081876115e4565b61169081866115e4565b80936115e4565b821190565b900390565b60011b61167d565b60041c9160021b91611676565b60081c9160041b9161166c565b60101c9160081b91611661565b60201c9160101b91611655565b60401c9160201b91611647565b50506116d56116d06116c96116bf6116b56116ab6116a161169761168661174a8a60801c90565b9850600160401b975061161b9650505050505050565b91905b8382106117705750505090565b9091928083169080841860011c820180921161054157845f5265ffffffffffff8260205f2001541665ffffffffffff8416105f146117b25750925b9190611763565b9392506117be906113b2565b916117ab565b6001600160a01b038083169392919081169081851415806118dd575b6117ec575b5050505050565b81611870575b505082611801575b80806117e5565b6001600160a01b03165f9081526009602052604090207fdec2bacdd2f05b59de34da9b523dff8be42e5e38e818c82fdb0bae774387a7249161184d916118479091611acd565b90611b36565b604080516001600160d01b039384168152919092166020820152a25f80806117fa565b6001600160a01b03165f9081526009602052604090207fdec2bacdd2f05b59de34da9b523dff8be42e5e38e818c82fdb0bae774387a724906118bb906118b586611acd565b90611afe565b604080516001600160d01b039384168152919092166020820152a25f806117f2565b508315156117e0565b60ff811461192c5760ff811690601f821161191d576040519161190a60408461112b565b6020808452838101919036833783525290565b632cd44ac360e21b5f5260045ffd5b506040516102298161193f816005611075565b038261112b565b60ff811461196a5760ff811690601f821161191d576040519161190a60408461112b565b506040516102298161193f816006611075565b91907f7fffffffffffffffffffffffffffffff5d576e7357a4501ddfe92f46681b20a084116119ff579160209360809260ff5f9560405194855216868401526040830152606082015282805260015afa156119f4575f516001600160a01b038116156119ea57905f905f90565b505f906001905f90565b6040513d5f823e3d90fd5b5050505f9160039190565b60041115611a1457565b634e487b7160e01b5f52602160045260245ffd5b611a3181611a0a565b80611a3a575050565b611a4381611a0a565b60018103611a5a5763f645eedf60e01b5f5260045ffd5b611a6381611a0a565b60028103611a7e575063fce698f760e01b5f5260045260245ffd5b80611a8a600392611a0a565b14611a925750565b6335e2f38360e21b5f5260045260245ffd5b8054821015611ab9575f5260205f2001905f90565b634e487b7160e01b5f52603260045260245ffd5b6001600160d01b038111611ae7576001600160d01b031690565b6306dfcc6560e41b5f5260d060045260245260445ffd5b90611b08436115b5565b90611b1283611475565b6001600160d01b03918216908216039190821161054157611b3292611da3565b9091565b90611b40436115b5565b90611b4a83611475565b6001600160d01b03918216908216019190821161054157611b3292611da3565b611b73436115b5565b90611b7e600a611475565b6001600160d01b039182169082160190811161054157611b3291600a611da3565b611ba8436115b5565b90611bb3600a611475565b6001600160d01b039182169082160390811161054157611b3291600a611da3565b9061115c91611bea611be583611acd565b611b6a565b50506001600160a01b03168015611c3f575b60086020527f5eff886ea0ce6ca488a3d6e336d6c0f75f46d19b42c06ce5ee98e42c96d256c7545f9182526040909120546001600160a01b0390811691166117c4565b611c50611c4b83611acd565b611b9f565b5050611bfc565b61115c91906001600160a01b03168015611cbf575b611c78611c4b83611acd565b50505f908152600860205260408120549080527f5eff886ea0ce6ca488a3d6e336d6c0f75f46d19b42c06ce5ee98e42c96d256c7546001600160a01b0390811691166117c4565b611ccb611be583611acd565b5050611c6c565b61115c92916001600160a01b03909116908115611d35575b6001600160a01b0316908115611d22575b5f90815260086020526040808220549282529020546001600160a01b0390811691166117c4565b611d2e611c4b84611acd565b5050611cfb565b611d41611be584611acd565b5050611cea565b8054600160401b81101561112657611d6591600182018155611aa4565b611d9057815160209092015160301b65ffffffffffff191665ffffffffffff92909216919091179055565b634e487b7160e01b5f525f60045260245ffd5b80549293928015611e4f57611dba611dc5916113a4565b825f5260205f200190565b8054603081901c9365ffffffffffff91821692918116808411611e4057879303611e0c5750611e0892509065ffffffffffff82549181199060301b169116179055565b9190565b915050611e0891611e2c611e1e61114d565b65ffffffffffff9093168352565b6001600160d01b0386166020830152611d48565b632520601d60e01b5f5260045ffd5b5090611e7491611e60611e1e61114d565b6001600160d01b0385166020830152611d48565b5f919056fea164736f6c634300081d000ac65a7bb8d6351c1cf70c95a316cc6a92839c986682d98bc35f958f4883f9d2a7dec2bacdd2f05b59de34da9b523dff8be42e5e38e818c82fdb0bae774387a724","linkReferences":{}},"methodIdentifiers":{"CLOCK_MODE()":"4bf5d7e9","DOMAIN_SEPARATOR()":"3644e515","allowance(address,address)":"dd62ed3e","approve(address,uint256)":"095ea7b3","balanceOf(address)":"70a08231","burn(address,uint256)":"9dc29fac","checkpoints(address,uint32)":"f1127ed8","clock()":"91ddadf4","decimals()":"313ce567","delegate(address)":"5c19a95c","delegateBySig(address,uint256,uint256,uint8,bytes32,bytes32)":"c3cda520","delegates(address)":"587cde1e","eip712Domain()":"84b0196e","getPastTotalSupply(uint256)":"8e539e8c","getPastVotes(address,uint256)":"3a46b1a8","getVotes(address)":"9ab24eb0","mint(address,uint256)":"40c10f19","name()":"06fdde03","nonces(address)":"7ecebe00","numCheckpoints(address)":"6fcfff45","owner()":"8da5cb5b","permit(address,address,uint256,uint256,uint8,bytes32,bytes32)":"d505accf","renounceOwnership()":"715018a6","symbol()":"95d89b41","totalSupply()":"18160ddd","transfer(address,uint256)":"a9059cbb","transferFrom(address,address,uint256)":"23b872dd","transferOwnership(address)":"f2fde38b"},"id":54}