{"abi":[{"type":"constructor","inputs":[{"name":"_pool","type":"address","internalType":"contract LiquidityPool"},{"name":"_governanceToken","type":"address","internalType":"contract AuraGovernanceToken"}],"stateMutability":"nonpayable"},{"type":"function","name":"VOTING_PERIOD","inputs":[],"outputs":[{"name":"","type":"uint256","internalType":"uint256"}],"stateMutability":"view"},{"type":"function","name":"createProposal","inputs":[{"name":"description","type":"string","internalType":"string"},{"name":"newFee","type":"uint256","internalType":"uint256"}],"outputs":[],"stateMutability":"nonpayable"},{"type":"function","name":"executeProposal","inputs":[{"name":"proposalId","type":"uint256","internalType":"uint256"}],"outputs":[],"stateMutability":"nonpayable"},{"type":"function","name":"getProposalStatus","inputs":[{"name":"proposalId","type":"uint256","internalType":"uint256"}],"outputs":[{"name":"exists","type":"bool","internalType":"bool"},{"name":"executed","type":"bool","internalType":"bool"},{"name":"votingActive","type":"bool","internalType":"bool"},{"name":"canExecute","type":"bool","internalType":"bool"},{"name":"yesVotes","type":"uint256","internalType":"uint256"},{"name":"noVotes","type":"uint256","internalType":"uint256"}],"stateMutability":"view"},{"type":"function","name":"governanceToken","inputs":[],"outputs":[{"name":"","type":"address","internalType":"contract AuraGovernanceToken"}],"stateMutability":"view"},{"type":"function","name":"hasVoted","inputs":[{"name":"","type":"uint256","internalType":"uint256"},{"name":"","type":"address","internalType":"address"}],"outputs":[{"name":"","type":"bool","internalType":"bool"}],"stateMutability":"view"},{"type":"function","name":"isExecutable","inputs":[{"name":"proposalId","type":"uint256","internalType":"uint256"}],"outputs":[{"name":"","type":"bool","internalType":"bool"}],"stateMutability":"view"},{"type":"function","name":"owner","inputs":[],"outputs":[{"name":"","type":"address","internalType":"address"}],"stateMutability":"view"},{"type":"function","name":"pool","inputs":[],"outputs":[{"name":"","type":"address","internalType":"contract LiquidityPool"}],"stateMutability":"view"},{"type":"function","name":"proposalCount","inputs":[],"outputs":[{"name":"","type":"uint256","internalType":"uint256"}],"stateMutability":"view"},{"type":"function","name":"proposals","inputs":[{"name":"","type":"uint256","internalType":"uint256"}],"outputs":[{"name":"id","type":"uint256","internalType":"uint256"},{"name":"proposer","type":"address","internalType":"address"},{"name":"yesVotes","type":"uint256","internalType":"uint256"},{"name":"noVotes","type":"uint256","internalType":"uint256"},{"name":"description","type":"string","internalType":"string"},{"name":"executed","type":"bool","internalType":"bool"},{"name":"newFee","type":"uint256","internalType":"uint256"},{"name":"startTime","type":"uint256","internalType":"uint256"},{"name":"endTime","type":"uint256","internalType":"uint256"}],"stateMutability":"view"},{"type":"function","name":"renounceOwnership","inputs":[],"outputs":[],"stateMutability":"nonpayable"},{"type":"function","name":"transferOwnership","inputs":[{"name":"newOwner","type":"address","internalType":"address"}],"outputs":[],"stateMutability":"nonpayable"},{"type":"function","name":"vote","inputs":[{"name":"proposalId","type":"uint256","internalType":"uint256"},{"name":"support","type":"bool","internalType":"bool"}],"outputs":[],"stateMutability":"nonpayable"},{"type":"event","name":"OwnershipTransferred","inputs":[{"name":"previousOwner","type":"address","indexed":true,"internalType":"address"},{"name":"newOwner","type":"address","indexed":true,"internalType":"address"}],"anonymous":false},{"type":"event","name":"ProposalCreated","inputs":[{"name":"id","type":"uint256","indexed":false,"internalType":"uint256"},{"name":"proposer","type":"address","indexed":false,"internalType":"address"},{"name":"description","type":"string","indexed":false,"internalType":"string"},{"name":"newFee","type":"uint256","indexed":false,"internalType":"uint256"},{"name":"startTime","type":"uint256","indexed":false,"internalType":"uint256"},{"name":"endTime","type":"uint256","indexed":false,"internalType":"uint256"}],"anonymous":false},{"type":"event","name":"ProposalExecuted","inputs":[{"name":"id","type":"uint256","indexed":false,"internalType":"uint256"}],"anonymous":false},{"type":"event","name":"VoteCast","inputs":[{"name":"proposalId","type":"uint256","indexed":false,"internalType":"uint256"},{"name":"voter","type":"address","indexed":false,"internalType":"address"},{"name":"support","type":"bool","indexed":false,"internalType":"bool"},{"name":"votes","type":"uint256","indexed":false,"internalType":"uint256"}],"anonymous":false},{"type":"error","name":"OwnableInvalidOwner","inputs":[{"name":"owner","type":"address","internalType":"address"}]},{"type":"error","name":"OwnableUnauthorizedAccount","inputs":[{"name":"account","type":"address","internalType":"address"}]}],"bytecode":{"object":"0x6080346100f557601f61106938819003918201601f19168301916001600160401b038311848410176100f95780849260409485528339810103126100f55780516001600160a01b03811691908290036100f557602001516001600160a01b038116908190036100f55733156100e2575f8054336001600160a01b0319821681178355604051949290916001600160a01b0316907f8be0079c531659141344cd1fd0a4f28419497f9722a3daafe3b4186f6b6457e09080a360018060a01b0319600154161760015560018060a01b03196002541617600255610f5b908161010e8239f35b631e4fbdf760e01b5f525f60045260245ffd5b5f80fd5b634e487b7160e01b5f52604160045260245ffdfe6080806040526004361015610012575f80fd5b5f905f3560e01c908163013cf08b14610c86575080630d61b51914610b1357806316f0115b14610aea57806335facf781461062c578063401853b714610572578063438596321461051c5780634e395e2a146104a8578063715018a61461044e5780638da5cb5b14610427578063b1610d7e14610409578063c9d27afe1461018f578063da35c66414610171578063f2fde38b146100e35763f96dae0a146100b8575f80fd5b346100e057806003193601126100e0576002546040516001600160a01b039091168152602090f35b80fd5b50346100e05760203660031901126100e0576004356001600160a01b0381169081900361016d57610112610f28565b80156101595781546001600160a01b03198116821783556001600160a01b03167f8be0079c531659141344cd1fd0a4f28419497f9722a3daafe3b4186f6b6457e08380a380f35b631e4fbdf760e01b82526004829052602482fd5b5080fd5b50346100e057806003193601126100e0576020600354604051908152f35b50346100e05760403660031901126100e0576004356024358015159182820361040557808452600560205260408420926101cb84541515610e6f565b6101dc60ff60058601541615610ebb565b600784015442106103cb576008840154421161039057818552600460209081526040808720335f908152925290205460ff1661035b576002546040516309ab24eb60e41b81523360048201529190602090839060249082906001600160a01b03165afa918215610350578692610318575b5081156102e157828652600460209081526040808820335f90815292529020805460ff191660011790557fcbdf6214089cba887ecbf35a0b6a734589959c9763342c756bb2a80ca2bc9f6e94608094156102cc576002016102af838254610f07565b90555b60405192835233602084015260408301526060820152a180f35b6003016102da838254610f07565b90556102b2565b60405162461bcd60e51b815260206004820152600f60248201526e2737903b37ba34b733903837bbb2b960891b6044820152606490fd5b9091506020813d602011610348575b8161033460209383610dfa565b810103126103445751905f61024d565b5f80fd5b3d9150610327565b6040513d88823e3d90fd5b60405162461bcd60e51b815260206004820152600d60248201526c105b1c9958591e481d9bdd1959609a1b6044820152606490fd5b60405162461bcd60e51b8152602060048201526013602482015272159bdd1a5b99c81c195c9a5bd908195b991959606a1b6044820152606490fd5b60405162461bcd60e51b8152602060048201526012602482015271159bdd1a5b99c81b9bdd081cdd185c9d195960721b6044820152606490fd5b8380fd5b50346100e057806003193601126100e057602060405162093a808152f35b50346100e057806003193601126100e057546040516001600160a01b039091168152602090f35b50346100e057806003193601126100e057610467610f28565b80546001600160a01b03198116825581906001600160a01b03167f8be0079c531659141344cd1fd0a4f28419497f9722a3daafe3b4186f6b6457e08280a380f35b50346100e05760203660031901126100e05760406020916004358152600583522080541515908161050c575b816104fe575b816104eb575b506040519015158152f35b905060036002820154910154105f6104e0565b6008810154421191506104da565b600581015460ff161591506104d4565b50346100e05760403660031901126100e057602435906001600160a01b03821682036100e05760409060043581526004602052209060018060a01b03165f52602052602060ff60405f2054166040519015158152f35b50346100e05760203660031901126100e057604060c0916004358152600560205220805415159060ff600582015416908260078201544210158061061e575b81610615575b81610607575b816105f5575b6003600284015493015493604051958652151560208601521515604085015215156060840152608083015260a0820152f35b600283015460038401541091506105c3565b6008830154421191506105bd565b831591506105b7565b5060088201544211156105b1565b50346100e05760403660031901126100e0576004359067ffffffffffffffff82116100e057366023830112156100e057816004013567ffffffffffffffff8111610ad65760405192610688601f8301601f191660200185610dfa565b8184523660248383010111610ad25781839260246020930183870137840101526002546040516370a0823160e01b81523360048201526024803594926001600160a01b031690602090839081845afa918215610a92578492610a9d575b5060206004916040519283809263313ce56760e01b82525afa8015610a92578490610a55575b60ff915016604d81116109d857600a0a90816103e802916103e88304036109d85710610a00576003545f1981146109ec57600101928360035562093a804201908142116109d857604051610120810181811067ffffffffffffffff8211176109c4576040528581526020810195338752604082019686885260608301978789526080840198878a5260a085019089825260c086019287845260e08701944286526101008801968a88528c52600560205260408c2097518855600188019060018060a01b039051166bffffffffffffffffffffffff60a01b825416179055516002870155516003860155600485019951998a5167ffffffffffffffff81116109b0576108168254610dc2565b601f811161096b575b506020601f82116001146108e157908060089796959493928d9e7f6b04e3d11c426737470e9f5cdd847185e72cb1b770b7b6781c49838732a9011e9e926108d6575b50508160011b915f199060031b1c19161790555b600586019051151560ff8019835416911617905551600685015551600784015551910155600354916108bf604051948594855233602086015260c0604086015260c0850190610e30565b91606084015242608084015260a08301520390a180f35b015190505f80610861565b828c52808c2090601f1983168d5b81811061095357509183917f6b04e3d11c426737470e9f5cdd847185e72cb1b770b7b6781c49838732a9011e9e9f60089a99989796956001951061093b575b505050811b019055610875565b01515f1960f88460031b161c191690555f808061092e565b8f8301518455600190930192602092830192016108ef565b828c5260208c20601f830160051c810191602084106109a6575b601f0160051c01905b81811061099b575061081f565b8c815560010161098e565b9091508190610985565b634e487b7160e01b8b52604160045260248bfd5b634e487b7160e01b86526041600452602486fd5b634e487b7160e01b84526011600452602484fd5b634e487b7160e01b83526011600452602483fd5b60405162461bcd60e51b815260206004820152602760248201527f496e73756666696369656e742062616c616e636520746f2063726561746520706044820152661c9bdc1bdcd85b60ca1b6064820152608490fd5b506020813d602011610a8a575b81610a6f60209383610dfa565b81010312610405575160ff811681036104055760ff9061070b565b3d9150610a62565b6040513d86823e3d90fd5b9091506020813d602011610aca575b81610ab960209383610dfa565b8101031261034457519060206106e5565b3d9150610aac565b8280fd5b634e487b7160e01b82526041600452602482fd5b50346100e057806003193601126100e0576001546040516001600160a01b039091168152602090f35b503461034457602036600319011261034457600435805f52600560205260405f20610b4081541515610e6f565b600581018054610b5360ff821615610ebb565b6008830154421115610c4157600283015460038401541015610c0a5760019060ff1916179055600660018060a01b0360015416910154813b15610344575f91602483926040519485938492637a77c85f60e11b845260048401525af18015610bff57610be9575b5060207f712ae1383f79ac853f8d882153778e0260ef8f03b504e2866e0593e04d2b291f91604051908152a180f35b610bf69192505f90610dfa565b5f906020610bba565b6040513d5f823e3d90fd5b60405162461bcd60e51b815260206004820152600f60248201526e141c9bdc1bdcd85b0819985a5b1959608a1b6044820152606490fd5b60405162461bcd60e51b815260206004820152601760248201527f566f74696e6720706572696f64206e6f7420656e6465640000000000000000006044820152606490fd5b34610344576020366003190112610344576004355f52600560205260405f209081549060018060a01b0360018401541692600281015490600381015460048201845f825492610cd484610dc2565b8084529360018116908115610da05750600114610d5c575b50610cf992500385610dfa565b610d4060ff600584015416946006840154926008600786015495015495604051998a998a5260208a0152604089015260608801526101206080880152610120870190610e30565b93151560a086015260c085015260e08401526101008301520390f35b90505f9291925260205f20905f915b818310610d84575050906020610cf99282010189610cec565b6020919350806001915483858b01015201910190918692610d6b565b905060209250610cf994915060ff191682840152151560051b82010189610cec565b90600182811c92168015610df0575b6020831014610ddc57565b634e487b7160e01b5f52602260045260245ffd5b91607f1691610dd1565b90601f8019910116810190811067ffffffffffffffff821117610e1c57604052565b634e487b7160e01b5f52604160045260245ffd5b91908251928382525f5b848110610e5a575050825f602080949584010152601f8019910116010190565b80602080928401015182828601015201610e3a565b15610e7657565b60405162461bcd60e51b815260206004820152601760248201527f50726f706f73616c20646f6573206e6f742065786973740000000000000000006044820152606490fd5b15610ec257565b60405162461bcd60e51b815260206004820152601960248201527f50726f706f73616c20616c7265616479206578656375746564000000000000006044820152606490fd5b91908201809211610f1457565b634e487b7160e01b5f52601160045260245ffd5b5f546001600160a01b03163303610f3b57565b63118cdaa760e01b5f523360045260245ffdfea164736f6c634300081d000a","linkReferences":{}},"methodIdentifiers":{"VOTING_PERIOD()":"b1610d7e","createProposal(string,uint256)":"35facf78","executeProposal(uint256)":"0d61b519","getProposalStatus(uint256)":"401853b7","governanceToken()":"f96dae0a","hasVoted(uint256,address)":"43859632","isExecutable(uint256)":"4e395e2a","owner()":"8da5cb5b","pool()":"16f0115b","proposalCount()":"da35c664","proposals(uint256)":"013cf08b","renounceOwnership()":"715018a6","transferOwnership(address)":"f2fde38b","vote(uint256,bool)":"c9d27afe"},"id":55}