{"abi":[{"type":"constructor","inputs":[{"name":"_baseToken","type":"address","internalType":"contract ERC20"},{"name":"_liquidityPool","type":"address","internalType":"contract LiquidityPool"}],"stateMutability":"nonpayable"},{"type":"function","name":"FEE_DENOMINATOR","inputs":[],"outputs":[{"name":"","type":"uint256","internalType":"uint256"}],"stateMutability":"view"},{"type":"function","name":"LAUNCH_FEE","inputs":[],"outputs":[{"name":"","type":"uint256","internalType":"uint256"}],"stateMutability":"view"},{"type":"function","name":"baseToken","inputs":[],"outputs":[{"name":"","type":"address","internalType":"contract ERC20"}],"stateMutability":"view"},{"type":"function","name":"cancelLaunch","inputs":[{"name":"launchId","type":"uint256","internalType":"uint256"}],"outputs":[],"stateMutability":"nonpayable"},{"type":"function","name":"contribute","inputs":[{"name":"launchId","type":"uint256","internalType":"uint256"},{"name":"amount","type":"uint256","internalType":"uint256"}],"outputs":[],"stateMutability":"nonpayable"},{"type":"function","name":"contributions","inputs":[{"name":"","type":"address","internalType":"address"},{"name":"","type":"uint256","internalType":"uint256"}],"outputs":[{"name":"","type":"uint256","internalType":"uint256"}],"stateMutability":"view"},{"type":"function","name":"createLaunch","inputs":[{"name":"token","type":"address","internalType":"address"},{"name":"totalSupply","type":"uint256","internalType":"uint256"},{"name":"pricePerToken","type":"uint256","internalType":"uint256"},{"name":"minContribution","type":"uint256","internalType":"uint256"},{"name":"maxContribution","type":"uint256","internalType":"uint256"},{"name":"duration","type":"uint256","internalType":"uint256"}],"outputs":[],"stateMutability":"payable"},{"type":"function","name":"createTokenAndLaunch","inputs":[{"name":"name","type":"string","internalType":"string"},{"name":"symbol","type":"string","internalType":"string"},{"name":"totalSupply","type":"uint256","internalType":"uint256"},{"name":"pricePerToken","type":"uint256","internalType":"uint256"},{"name":"minContribution","type":"uint256","internalType":"uint256"},{"name":"maxContribution","type":"uint256","internalType":"uint256"},{"name":"duration","type":"uint256","internalType":"uint256"}],"outputs":[],"stateMutability":"payable"},{"type":"function","name":"finalizeLaunch","inputs":[{"name":"launchId","type":"uint256","internalType":"uint256"}],"outputs":[],"stateMutability":"nonpayable"},{"type":"function","name":"getLaunchCreator","inputs":[{"name":"launchId","type":"uint256","internalType":"uint256"}],"outputs":[{"name":"","type":"address","internalType":"address"}],"stateMutability":"view"},{"type":"function","name":"getLaunchDetails","inputs":[{"name":"launchId","type":"uint256","internalType":"uint256"}],"outputs":[{"name":"token","type":"address","internalType":"address"},{"name":"creator","type":"address","internalType":"address"},{"name":"name","type":"string","internalType":"string"},{"name":"symbol","type":"string","internalType":"string"},{"name":"totalSupply","type":"uint256","internalType":"uint256"},{"name":"pricePerToken","type":"uint256","internalType":"uint256"},{"name":"raisedAmount","type":"uint256","internalType":"uint256"},{"name":"launched","type":"bool","internalType":"bool"},{"name":"cancelled","type":"bool","internalType":"bool"}],"stateMutability":"view"},{"type":"function","name":"getLaunchToken","inputs":[{"name":"launchId","type":"uint256","internalType":"uint256"}],"outputs":[{"name":"","type":"address","internalType":"address"}],"stateMutability":"view"},{"type":"function","name":"getLaunchTokenInfo","inputs":[{"name":"launchId","type":"uint256","internalType":"uint256"}],"outputs":[{"name":"name","type":"string","internalType":"string"},{"name":"symbol","type":"string","internalType":"string"}],"stateMutability":"view"},{"type":"function","name":"isLaunchCancelled","inputs":[{"name":"launchId","type":"uint256","internalType":"uint256"}],"outputs":[{"name":"","type":"bool","internalType":"bool"}],"stateMutability":"view"},{"type":"function","name":"isLaunchLaunched","inputs":[{"name":"launchId","type":"uint256","internalType":"uint256"}],"outputs":[{"name":"","type":"bool","internalType":"bool"}],"stateMutability":"view"},{"type":"function","name":"launchCount","inputs":[],"outputs":[{"name":"","type":"uint256","internalType":"uint256"}],"stateMutability":"view"},{"type":"function","name":"launches","inputs":[{"name":"","type":"uint256","internalType":"uint256"}],"outputs":[{"name":"token","type":"address","internalType":"address"},{"name":"creator","type":"address","internalType":"address"},{"name":"name","type":"string","internalType":"string"},{"name":"symbol","type":"string","internalType":"string"},{"name":"totalSupply","type":"uint256","internalType":"uint256"},{"name":"pricePerToken","type":"uint256","internalType":"uint256"},{"name":"minContribution","type":"uint256","internalType":"uint256"},{"name":"maxContribution","type":"uint256","internalType":"uint256"},{"name":"startTime","type":"uint256","internalType":"uint256"},{"name":"endTime","type":"uint256","internalType":"uint256"},{"name":"raisedAmount","type":"uint256","internalType":"uint256"},{"name":"launched","type":"bool","internalType":"bool"},{"name":"cancelled","type":"bool","internalType":"bool"},{"name":"liquidityPool","type":"address","internalType":"address"}],"stateMutability":"view"},{"type":"function","name":"liquidityPool","inputs":[],"outputs":[{"name":"","type":"address","internalType":"contract LiquidityPool"}],"stateMutability":"view"},{"type":"function","name":"owner","inputs":[],"outputs":[{"name":"","type":"address","internalType":"address"}],"stateMutability":"view"},{"type":"function","name":"renounceOwnership","inputs":[],"outputs":[],"stateMutability":"nonpayable"},{"type":"function","name":"transferOwnership","inputs":[{"name":"newOwner","type":"address","internalType":"address"}],"outputs":[],"stateMutability":"nonpayable"},{"type":"function","name":"withdrawFees","inputs":[],"outputs":[],"stateMutability":"nonpayable"},{"type":"event","name":"ContributionMade","inputs":[{"name":"launchId","type":"uint256","indexed":true,"internalType":"uint256"},{"name":"contributor","type":"address","indexed":true,"internalType":"address"},{"name":"amount","type":"uint256","indexed":false,"internalType":"uint256"}],"anonymous":false},{"type":"event","name":"LaunchCancelled","inputs":[{"name":"launchId","type":"uint256","indexed":true,"internalType":"uint256"}],"anonymous":false},{"type":"event","name":"LaunchCreated","inputs":[{"name":"launchId","type":"uint256","indexed":true,"internalType":"uint256"},{"name":"creator","type":"address","indexed":true,"internalType":"address"},{"name":"token","type":"address","indexed":true,"internalType":"address"},{"name":"name","type":"string","indexed":false,"internalType":"string"},{"name":"symbol","type":"string","indexed":false,"internalType":"string"}],"anonymous":false},{"type":"event","name":"LaunchSuccessful","inputs":[{"name":"launchId","type":"uint256","indexed":true,"internalType":"uint256"},{"name":"raisedAmount","type":"uint256","indexed":false,"internalType":"uint256"}],"anonymous":false},{"type":"event","name":"OwnershipTransferred","inputs":[{"name":"previousOwner","type":"address","indexed":true,"internalType":"address"},{"name":"newOwner","type":"address","indexed":true,"internalType":"address"}],"anonymous":false},{"type":"error","name":"OwnableInvalidOwner","inputs":[{"name":"owner","type":"address","internalType":"address"}]},{"type":"error","name":"OwnableUnauthorizedAccount","inputs":[{"name":"account","type":"address","internalType":"address"}]},{"type":"error","name":"ReentrancyGuardReentrantCall","inputs":[]},{"type":"error","name":"SafeERC20FailedOperation","inputs":[{"name":"token","type":"address","internalType":"address"}]}],"bytecode":{"object":"0x60c03461010957601f61497a38819003918201601f19168301916001600160401b0383118484101761010d578084926040948552833981010312610109578051906001600160a01b038216820361010957602001516001600160a01b03811681036101095733156100f6575f8054336001600160a01b0319821681178355604051949290916001600160a01b0316907f8be0079c531659141344cd1fd0a4f28419497f9722a3daafe3b4186f6b6457e09080a36001805560805260a052614858908161012282396080518181816101bf015281816109c501528181610bc9015281816110740152611443015260a05181610f4e0152f35b631e4fbdf760e01b5f525f60045260245ffd5b5f80fd5b634e487b7160e01b5f52604160045260245ffdfe6080806040526004361015610012575f80fd5b5f905f3560e01c90816309197a8114611a8b575080630b1f6f641461152857806327cca59f1461150b5780632d2c2421146114d6578063476343ee14611416578063480ed252146113e1578063550b521c1461139d5780635fb831db14610f7d578063665a11ca14610f38578063715018a614610ede5780637b443a7614610dd35780638c59091714610acc5780638da5cb5b14610aa5578063a40fe3b014610a73578063a9fa518c14610a40578063b6dfbc31146109f4578063c55dae63146109af578063d062e2a2146108e7578063d73792a9146108ca578063e22bbefa146102fe578063f2fde38b146102785763f61f1a0314610110575f80fd5b346102755760203660031901126102755760043561012c611f4a565b80825260036020526040822060018101546001600160a01b0316903382148015610262575b1561022c57600b81019081549161016b60ff841615611e56565b60ff8360081c166101f357610100600a9361ff0019161790550154806101b9575b50507f979d51f8813f5cf2ff416c3e2a173a4a15d8cf07ed269df06fd2798e401a865e8280a26001805580f35b6101ec917f00000000000000000000000000000000000000000000000000000000000000006001600160a01b0316611f90565b5f8061018c565b60405162461bcd60e51b8152602060048201526011602482015270185b1c9958591e4818d85b98d95b1b1959607a1b6044820152606490fd5b60405162461bcd60e51b815260206004820152600e60248201526d1b9bdd08185d5d1a1bdc9a5e995960921b6044820152606490fd5b5083546001600160a01b03163314610151565b80fd5b503461027557602036600319011261027557610292611b43565b61029a611f6a565b6001600160a01b031680156102ea5781546001600160a01b03198116821783556001600160a01b03167f8be0079c531659141344cd1fd0a4f28419497f9722a3daafe3b4186f6b6457e08380a380f35b631e4fbdf760e01b82526004829052602482fd5b5060c036600319011261027557610313611b43565b6084359060a4359060643560443560243561032c611f4a565b6001600160a01b0384161561089557610346811515611c9f565b610351821515611cdc565b61035c831515611d18565b61036883871015611d52565b610373851515611d8c565b61037d8282611dcb565b6103e88102908082046103e81490151715610881576127106103a29104341015611dfc565b6040516306fdde0360e01b81529487866004816001600160a01b0389165afa95861561087657889661085a575b506040516395d89b4160e01b81529688886004816001600160a01b038a165afa97881561084f57899861082b575b5061041761040c600254611e3b565b928360025542611e49565b906040519561042587611aa5565b60018060a01b0388168752602087019533875260408801958a87528b60608a0152608089015260a088015260c087015260e086015242610100860152610120850152876101408501528761016085015287610180850152876101a085015287526003602052604087209160018060a01b0360018060a01b03855116166bffffffffffffffffffffffff60a01b84541617835560018060a01b03905116600183019060018060a01b03166bffffffffffffffffffffffff60a01b825416179055518051906001600160401b0382116107545781906105056002850154611b59565b601f81116107db575b50602090601f8311600114610773578992610768575b50508160011b915f199060031b1c19161760028201555b60608201518051906001600160401b0382116107545761055e6003840154611b59565b601f8111610710575b50602090601f831160011461069e57918061064a959492600b948b92610693575b50508160011b915f199060031b1c19161760038201555b6080830151600482015560a0830151600582015560c0830151600682015560e0830151600782015561010083015160088201556101208301516009820155610140830151600a82015501906106076101608201511515839060ff801983541691151516179055565b610180810151825461ff00191690151560081b61ff00161782556101a00151815462010000600160b01b03191660109190911b62010000600160b01b0316179055565b7fd60becb307f53878fb9861ef5a6e371265818032cf0a0d90934e43fa1a7182f16106896002549260405191829160018060a01b031696339683611c77565b0390a46001805580f35b015190505f80610588565b9060038401895280892091895b601f19851681106106f857509261064a959492600192600b9583601f198116106106e0575b505050811b01600382015561059f565b01515f1960f88460031b161c191690555f80806106d0565b919260206001819286850151815501940192016106ab565b60038401895260208920601f840160051c81016020851061074d575b601f830160051c82018110610742575050610567565b8a815560010161072c565b508061072c565b634e487b7160e01b88526041600452602488fd5b015190505f80610524565b600285018a52818a209250601f1984168a5b8181106107c357509084600195949392106107ab575b505050811b01600282015561053b565b01515f1960f88460031b161c191690555f808061079b565b92936020600181928786015181550195019301610785565b90915060028401895260208920601f840160051c810160208510610824575b90849392915b601f830160051c8201811061081657505061050e565b8b8155859450600101610800565b50806107fa565b6108489198503d808b833e6108408183611ac1565b810190611eec565b965f6103fd565b6040513d8b823e3d90fd5b61086f9196503d808a833e6108408183611ac1565b945f6103cf565b6040513d8a823e3d90fd5b634e487b7160e01b88526011600452602488fd5b60405162461bcd60e51b815260206004820152600d60248201526c34b73b30b634b2103a37b5b2b760991b6044820152606490fd5b503461027557806003193601126102755760206040516127108152f35b503461027557602036600319011261027557604090600435815260036020522060018060a01b0381541660018060a01b036001830154169160ff6004820154916005810154600a82015490610985600b84015493610977610956600361094f60028501611b91565b9301611b91565b916040519a8b9a8b5260208b015261012060408b01526101208a0190611c52565b9088820360608a0152611c52565b94608087015260a086015260c0850152818116151560e085015260081c1615156101008301520390f35b50346102755780600319360112610275576040517f00000000000000000000000000000000000000000000000000000000000000006001600160a01b03168152602090f35b5034610275576020366003190112610275576040906004358152600360205220610a2c6003610a2560028401611b91565b9201611b91565b90610a3c60405192839283611c77565b0390f35b503461027557602036600319011261027557602090600435815260038252604060018060a01b0391205416604051908152f35b50346102755760203660031901126102755760ff600b6040602093600435815260038552200154166040519015158152f35b5034610275578060031936011261027557546040516001600160a01b039091168152602090f35b503461027557604036600319011261027557602435600435610aec611f4a565b80835260036020526040832080546001600160a01b031615610d9b57610b2860ff600b830154610b1e82821615611e56565b60081c1615611e95565b60088101544210610d685760098101544211610d3b5760068101548310610d065760078101548311610cd157600a810190610b64848354611e49565b600482015490610b7960058401548093611dcb565b10610c9b57610b889085611dde565b908115610c6a57610c3792610bf66040516323b872dd60e01b602082015233602482015230604482015287606482015260648152610bc7608482611ac1565b7f00000000000000000000000000000000000000000000000000000000000000006001600160a01b0316611fcc565b33875260046020526040872085885260205260408720610c17878254611e49565b9055610c24868254611e49565b90555433906001600160a01b0316611f90565b6040519182527f0a4a91237423e0a1766a761c7cb029311d8b95d6b1b81db1b949a70c98b4e08e60203393a36001805580f35b60405162461bcd60e51b81526020600482015260096024820152686e6f20746f6b656e7360b81b6044820152606490fd5b60405162461bcd60e51b815260206004820152600e60248201526d195e18d959591cc81d185c99d95d60921b6044820152606490fd5b60405162461bcd60e51b815260206004820152600d60248201526c61626f7665206d6178696d756d60981b6044820152606490fd5b60405162461bcd60e51b815260206004820152600d60248201526c62656c6f77206d696e696d756d60981b6044820152606490fd5b60405162461bcd60e51b8152602060048201526005602482015264195b99195960da1b6044820152606490fd5b60405162461bcd60e51b815260206004820152600b60248201526a1b9bdd081cdd185c9d195960aa1b6044820152606490fd5b60405162461bcd60e51b815260206004820152601060248201526f1b185d5b98da081b9bdd08199bdd5b9960821b6044820152606490fd5b5034610275576020366003190112610275576004358152600360205260409020805460018201546001600160a01b0390811692911690610e1560028201611b91565b610e2160038301611b91565b9160048101549260058201546006830154600784015490600885015492600986015494600a87015496600b0154976040519b8c9b8c5260208c015260408b016101c090526101c08b01610e7391611c52565b8a810360608c0152610e8491611c52565b60808a019890985260a089015260c088015260e087015261010086015261012085015261014084015260ff8181161515610160850152600882901c16151561018084015260101c6001600160a01b03166101a08301520390f35b5034610275578060031936011261027557610ef7611f6a565b80546001600160a01b03198116825581906001600160a01b03167f8be0079c531659141344cd1fd0a4f28419497f9722a3daafe3b4186f6b6457e08280a380f35b50346102755780600319360112610275576040517f00000000000000000000000000000000000000000000000000000000000000006001600160a01b03168152602090f35b50346112e95760203660031901126112e957600435610f9a611f4a565b5f8181526003602052604090206001810180549091906001600160a01b0316330361136a57600b8101805492610fd360ff851615611e56565b610fe360ff8560081c1615611e95565b600983015442111561133957600a8301938454156113015760ff19166001178255604051610c51808201906001600160401b038211838310176112ed576020918391612d3483393081520301905ff080156112de5760018060a01b0384541692604051610ec792838201938285106001600160401b038611176112ed57606091839161398583396001600160a01b037f0000000000000000000000000000000000000000000000000000000000000000811680885260208801999099521660408601819052940301905ff080156112de576001600160a01b031691803b156112e9575f809160246040518094819363f2fde38b60e01b83528860048401525af180156112de576112c5575b50805462010000600160b01b031916601083901b62010000600160b01b031617905586905b855460011c94611127600582015487611dde565b905460405163095ea7b360e01b81526001600160a01b038481166004830152602482018490529091602091839160449183918991165af1801561129d576112a8575b5060405163095ea7b360e01b81526001600160a01b038316600482015260248101879052602081604481878a5af1801561129d57611270575b50813b1561126c578291604483926040519485938492634e6a20ed60e11b84528b600485015260248401525af1801561126157611248575b5050548354928303926001600160a01b0390911691908311611234576020927f0358228c8c020e955e1505fbcf2b6dfd571ce2a385a39e77977ecf6c9b5d8ba6949261122592611f90565b54604051908152a26001805580f35b634e487b7160e01b86526011600452602486fd5b8161125291611ac1565b61125d57855f6111da565b8580fd5b6040513d84823e3d90fd5b8280fd5b6112919060203d602011611296575b6112898183611ac1565b810190611ed4565b6111a2565b503d61127f565b6040513d86823e3d90fd5b6112c09060203d602011611296576112898183611ac1565b611169565b6112d3919298505f90611ac1565b5f96906111136110ee565b6040513d5f823e3d90fd5b5f80fd5b634e487b7160e01b5f52604160045260245ffd5b60405162461bcd60e51b815260206004820152601060248201526f6e6f20636f6e747269627574696f6e7360801b6044820152606490fd5b60405162461bcd60e51b81526020600482015260096024820152681b9bdd08195b99195960ba1b6044820152606490fd5b60405162461bcd60e51b815260206004820152600b60248201526a3737ba1031b932b0ba37b960a91b6044820152606490fd5b346112e95760403660031901126112e9576001600160a01b036113be611b43565b165f52600460205260405f206024355f52602052602060405f2054604051908152f35b346112e95760203660031901126112e9576004355f526003602052602060018060a01b03600160405f20015416604051908152f35b346112e9575f3660031901126112e95761142e611f6a565b6040516370a0823160e01b81523060048201527f00000000000000000000000000000000000000000000000000000000000000006001600160a01b031690602081602481855afa9081156112de575f916114a4575b508061148b57005b5f546114a2926001600160a01b0390911690611f90565b005b90506020813d6020116114ce575b816114bf60209383611ac1565b810103126112e9575182611483565b3d91506114b2565b346112e95760203660031901126112e9576004355f526003602052602060ff600b60405f20015460081c166040519015158152f35b346112e9575f3660031901126112e9576020600254604051908152f35b60e03660031901126112e9576004356001600160401b0381116112e957611553903690600401611afd565b6024356001600160401b0381116112e957611572903690600401611afd565b60c435919060a43560443560843560643561158b611f4a565b855115611a5657845115611a1f576115a4831515611c9f565b6115af811515611cdc565b6115ba821515611d18565b6115c682851015611d52565b6115d1871515611d8c565b6115db8184611dcb565b6103e88102908082046103e81490151715611a0b576127106116009104341015611dfc565b604051610d0f8082018281106001600160401b038211176112ed578291612025833960808152611644611636608083018b611c52565b828103602084015289611c52565b9086604082015260603091015203905ff09283156112de5761168161166a600254611e3b565b60028190556001600160a01b039095169842611e49565b946040519561168f87611aa5565b8987523360208089019182526040808a018c815260608b018c815260808c0197885260a08c0198895260c08c01998a5260e08c0196909652426101008c01526101208b01949094525f6101408b018190526101608b018190526101808b018190526101a08b018190529889526003909152909620875181546001600160a01b03199081166001600160a01b03928316178355975160018301805490991691161790965551805160028701916001600160401b0382116112ed5781906117548454611b59565b601f81116119bb575b50602090601f8311600114611958575f9261194d575b50508160011b915f199060031b1c19161790555b518051906001600160401b0382116112ed576117a66003870154611b59565b601f8111611905575b50602090601f8311600114611890579180600b969492611846999896945f92611885575b50508160011b915f199060031b1c19161760038501555b51600484015551600583015551600682015560e0830151600782015561010083015160088201556101208301516009820155610140830151600a82015501906106076101608201511515839060ff801983541691151516179055565b7fd60becb307f53878fb9861ef5a6e371265818032cf0a0d90934e43fa1a7182f161187c60025492604051918291339683611c77565b0390a460018055005b015190508c806117d3565b90600387015f52805f20915f5b601f19851681106118ed575092600b9694926001926118469a99979583601f198116106118d5575b505050811b0160038501556117ea565b01515f1960f88460031b161c191690558c80806118c5565b9192602060018192868501518155019401920161189d565b600387015f5260205f20601f840160051c81019160208510611943575b601f0160051c01905b81811061193857506117af565b5f815560010161192b565b9091508190611922565b015190508c80611773565b5f8581528281209350601f198516905b8181106119a3575090846001959493921061198b575b505050811b019055611787565b01515f1960f88460031b161c191690558c808061197e565b92936020600181928786015181550195019301611968565b909150835f5260205f20601f840160051c81019160208510611a01575b90601f859493920160051c01905b8181106119f3575061175d565b5f81558493506001016119e6565b90915081906119d8565b634e487b7160e01b5f52601160045260245ffd5b60405162461bcd60e51b815260206004820152600f60248201526e1cde5b589bdb081c995c5d5a5c9959608a1b6044820152606490fd5b60405162461bcd60e51b815260206004820152600d60248201526c1b985b59481c995c5d5a5c9959609a1b6044820152606490fd5b346112e9575f3660031901126112e957806103e860209252f35b6101c081019081106001600160401b038211176112ed57604052565b90601f801991011681019081106001600160401b038211176112ed57604052565b6001600160401b0381116112ed57601f01601f191660200190565b81601f820112156112e957803590611b1482611ae2565b92611b226040519485611ac1565b828452602083830101116112e957815f926020809301838601378301015290565b600435906001600160a01b03821682036112e957565b90600182811c92168015611b87575b6020831014611b7357565b634e487b7160e01b5f52602260045260245ffd5b91607f1691611b68565b9060405191825f825492611ba484611b59565b8084529360018116908115611c0f5750600114611bcb575b50611bc992500383611ac1565b565b90505f9291925260205f20905f915b818310611bf3575050906020611bc9928201015f611bbc565b6020919350806001915483858901015201910190918492611bda565b905060209250611bc994915060ff191682840152151560051b8201015f611bbc565b5f5b838110611c425750505f910152565b8181015183820152602001611c33565b90602091611c6b81518092818552858086019101611c31565b601f01601f1916010190565b9091611c8e611c9c93604084526040840190611c52565b916020818403910152611c52565b90565b15611ca657565b60405162461bcd60e51b815260206004820152600e60248201526d696e76616c696420737570706c7960901b6044820152606490fd5b15611ce357565b60405162461bcd60e51b815260206004820152600d60248201526c696e76616c696420707269636560981b6044820152606490fd5b15611d1f57565b60405162461bcd60e51b815260206004820152600b60248201526a34b73b30b634b21036b4b760a91b6044820152606490fd5b15611d5957565b60405162461bcd60e51b815260206004820152600b60248201526a0d2dcecc2d8d2c840dac2f60ab1b6044820152606490fd5b15611d9357565b60405162461bcd60e51b815260206004820152601060248201526f34b73b30b634b210323ab930ba34b7b760811b6044820152606490fd5b81810292918115918404141715611a0b57565b8115611de8570490565b634e487b7160e01b5f52601260045260245ffd5b15611e0357565b60405162461bcd60e51b815260206004820152601060248201526f696e73756666696369656e742066656560801b6044820152606490fd5b5f198114611a0b5760010190565b91908201809211611a0b57565b15611e5d57565b60405162461bcd60e51b815260206004820152601060248201526f185b1c9958591e481b185d5b98da195960821b6044820152606490fd5b15611e9c57565b60405162461bcd60e51b815260206004820152601060248201526f1b185d5b98da0818d85b98d95b1b195960821b6044820152606490fd5b908160209103126112e9575180151581036112e95790565b6020818303126112e9578051906001600160401b0382116112e9570181601f820112156112e9578051611f1e81611ae2565b92611f2c6040519485611ac1565b818452602082840101116112e957611c9c9160208085019101611c31565b600260015414611f5b576002600155565b633ee5aeb560e01b5f5260045ffd5b5f546001600160a01b03163303611f7d57565b63118cdaa760e01b5f523360045260245ffd5b60405163a9059cbb60e01b60208201526001600160a01b03929092166024830152604480830193909352918152611bc991611fcc606483611ac1565b905f602091828151910182855af1156112de575f513d61201b57506001600160a01b0381163b155b611ffb5750565b635274afe760e01b5f9081526001600160a01b0391909116600452602490fd5b60011415611ff456fe6080604052346103f457610d0f80380380610019816103f8565b9283398101906080818303126103f45780516001600160401b0381116103f4578261004591830161041d565b602082015190926001600160401b0382116103f45761006591830161041d565b604082015160609092015190916001600160a01b038216918290036103f45783516001600160401b03811161030557600354600181811c911680156103ea575b60208210146102e757601f8111610387575b50602094601f8211600114610324579481929394955f92610319575b50508160011b915f199060031b1c1916176003555b82516001600160401b03811161030557600454600181811c911680156102fb575b60208210146102e757601f8111610284575b506020601f821160011461022157819293945f92610216575b50508160011b915f199060031b1c1916176004555b811561020357600580546001600160a01b03198116841790915582906001600160a01b03167f8be0079c531659141344cd1fd0a4f28419497f9722a3daafe3b4186f6b6457e05f80a3600254908082018092116101ef5760207fddf252ad1be2c89b69c2b068fc378daa952ba7f163c4a11628f55a4df523b3ef915f9360025584845283825260408420818154019055604051908152a360405161088890816104878239f35b634e487b7160e01b5f52601160045260245ffd5b631e4fbdf760e01b5f525f60045260245ffd5b015190505f80610134565b601f1982169060045f52805f20915f5b81811061026c57509583600195969710610254575b505050811b01600455610149565b01515f1960f88460031b161c191690555f8080610246565b9192602060018192868b015181550194019201610231565b60045f527f8a35acfbc15ff81a39ae7d344fd709f28e8600b4aa8c65c6b64bfe7fe36bd19b601f830160051c810191602084106102dd575b601f0160051c01905b8181106102d2575061011b565b5f81556001016102c5565b90915081906102bc565b634e487b7160e01b5f52602260045260245ffd5b90607f1690610109565b634e487b7160e01b5f52604160045260245ffd5b015190505f806100d3565b601f1982169560035f52805f20915f5b88811061036f57508360019596979810610357575b505050811b016003556100e8565b01515f1960f88460031b161c191690555f8080610349565b91926020600181928685015181550194019201610334565b60035f527fc2575a0e9e593c00f959f8c92f12db2869c3395a3b0502d05e2516446f71f85b601f830160051c810191602084106103e0575b601f0160051c01905b8181106103d557506100b7565b5f81556001016103c8565b90915081906103bf565b90607f16906100a5565b5f80fd5b6040519190601f01601f191682016001600160401b0381118382101761030557604052565b81601f820112156103f4578051906001600160401b0382116103055761044c601f8301601f19166020016103f8565b92828452602083830101116103f4575f5b82811061047157505060205f918301015290565b8060208092840101518282870101520161045d56fe6080806040526004361015610012575f80fd5b5f3560e01c90816306fdde031461067b57508063095ea7b3146105f957806318160ddd146105dc57806323b872dd146104fd578063313ce567146104e257806340c10f191461043657806342966c681461039657806370a082311461035f578063715018a6146103045780638da5cb5b146102dc57806395d89b41146101c1578063a9059cbb14610190578063dd62ed3e146101405763f2fde38b146100b6575f80fd5b3461013c57602036600319011261013c576100cf610791565b6100d7610854565b6001600160a01b0316801561012957600580546001600160a01b0319811683179091556001600160a01b03167f8be0079c531659141344cd1fd0a4f28419497f9722a3daafe3b4186f6b6457e05f80a3005b631e4fbdf760e01b5f525f60045260245ffd5b5f80fd5b3461013c57604036600319011261013c57610159610791565b6101616107a7565b6001600160a01b039182165f908152600160209081526040808320949093168252928352819020549051908152f35b3461013c57604036600319011261013c576101b66101ac610791565b60243590336107bd565b602060405160018152f35b3461013c575f36600319011261013c576040515f6004548060011c906001811680156102d2575b6020831081146102be578285529081156102a2575060011461024d575b50819003601f01601f191681019067ffffffffffffffff821181831017610239576102358291826040528261074a565b0390f35b634e487b7160e01b5f52604160045260245ffd5b905060045f527f8a35acfbc15ff81a39ae7d344fd709f28e8600b4aa8c65c6b64bfe7fe36bd19b5f905b82821061028c57506020915082010182610205565b6001816020925483858801015201910190610277565b90506020925060ff191682840152151560051b82010182610205565b634e487b7160e01b5f52602260045260245ffd5b91607f16916101e8565b3461013c575f36600319011261013c576005546040516001600160a01b039091168152602090f35b3461013c575f36600319011261013c5761031c610854565b600580546001600160a01b031981169091555f906001600160a01b03167f8be0079c531659141344cd1fd0a4f28419497f9722a3daafe3b4186f6b6457e08280a3005b3461013c57602036600319011261013c576001600160a01b03610380610791565b165f525f602052602060405f2054604051908152f35b3461013c57602036600319011261013c57600435331561042357335f525f60205260405f205481811061040a5790805f923384528360205203604083205580600254036002556040519081527fddf252ad1be2c89b69c2b068fc378daa952ba7f163c4a11628f55a4df523b3ef60203392a3005b63391434e360e21b5f523360045260245260445260645ffd5b634b637e8f60e11b5f525f60045260245ffd5b3461013c57604036600319011261013c5761044f610791565b6024359061045b610854565b6001600160a01b03169081156104cf57600254908082018092116104bb5760207fddf252ad1be2c89b69c2b068fc378daa952ba7f163c4a11628f55a4df523b3ef915f9360025584845283825260408420818154019055604051908152a3005b634e487b7160e01b5f52601160045260245ffd5b63ec442f0560e01b5f525f60045260245ffd5b3461013c575f36600319011261013c57602060405160128152f35b3461013c57606036600319011261013c57610516610791565b61051e6107a7565b6001600160a01b0382165f818152600160209081526040808320338452909152902054909260443592915f19811061055c575b506101b693506107bd565b8381106105c15784156105ae57331561059b576101b6945f52600160205260405f2060018060a01b0333165f526020528360405f209103905584610551565b634a1406b160e11b5f525f60045260245ffd5b63e602df0560e01b5f525f60045260245ffd5b8390637dc7a0d960e11b5f523360045260245260445260645ffd5b3461013c575f36600319011261013c576020600254604051908152f35b3461013c57604036600319011261013c57610612610791565b6024359033156105ae576001600160a01b031690811561059b57335f52600160205260405f20825f526020528060405f20556040519081527f8c5be1e5ebec7d5bd14f71427d1e84f3dd0314c0f7b2291e5b200ac8c7c3b92560203392a3602060405160018152f35b3461013c575f36600319011261013c575f6003548060011c90600181168015610740575b6020831081146102be578285529081156102a257506001146106eb5750819003601f01601f191681019067ffffffffffffffff821181831017610239576102358291826040528261074a565b905060035f527fc2575a0e9e593c00f959f8c92f12db2869c3395a3b0502d05e2516446f71f85b5f905b82821061072a57506020915082010182610205565b6001816020925483858801015201910190610715565b91607f169161069f565b9190916020815282518060208301525f5b81811061077b575060409293505f838284010152601f8019910116010190565b806020809287010151604082860101520161075b565b600435906001600160a01b038216820361013c57565b602435906001600160a01b038216820361013c57565b6001600160a01b0316908115610423576001600160a01b03169182156104cf57815f525f60205260405f205481811061083b57817fddf252ad1be2c89b69c2b068fc378daa952ba7f163c4a11628f55a4df523b3ef92602092855f525f84520360405f2055845f525f825260405f20818154019055604051908152a3565b8263391434e360e21b5f5260045260245260445260645ffd5b6005546001600160a01b0316330361086857565b63118cdaa760e01b5f523360045260245ffdfea164736f6c634300081d000a60806040523461038857610c516020813803918261001c8161038c565b93849283398101031261038857516001600160a01b0381169081900361038857610046604061038c565b90600d82526c20bab930902628102a37b5b2b760991b602083015261006b604061038c565b60038152620414c560ec1b602082015282519091906001600160401b03811161029957600354600181811c9116801561037e575b602082101461027b57601f811161031b575b506020601f82116001146102b857819293945f926102ad575b50508160011b915f199060031b1c1916176003555b81516001600160401b03811161029957600454600181811c9116801561028f575b602082101461027b57601f8111610218575b50602092601f82116001146101b757928192935f926101ac575b50508160011b915f199060031b1c1916176004555b801561019957600580546001600160a01b03198116831790915560405191906001600160a01b03167f8be0079c531659141344cd1fd0a4f28419497f9722a3daafe3b4186f6b6457e05f80a361089f90816103b28239f35b631e4fbdf760e01b5f525f60045260245ffd5b015190505f8061012c565b601f1982169360045f52805f20915f5b86811061020057508360019596106101e8575b505050811b01600455610141565b01515f1960f88460031b161c191690555f80806101da565b919260206001819286850151815501940192016101c7565b60045f527f8a35acfbc15ff81a39ae7d344fd709f28e8600b4aa8c65c6b64bfe7fe36bd19b601f830160051c81019160208410610271575b601f0160051c01905b8181106102665750610112565b5f8155600101610259565b9091508190610250565b634e487b7160e01b5f52602260045260245ffd5b90607f1690610100565b634e487b7160e01b5f52604160045260245ffd5b015190505f806100ca565b601f1982169060035f52805f20915f5b818110610303575095836001959697106102eb575b505050811b016003556100df565b01515f1960f88460031b161c191690555f80806102dd565b9192602060018192868b0151815501940192016102c8565b60035f527fc2575a0e9e593c00f959f8c92f12db2869c3395a3b0502d05e2516446f71f85b601f830160051c81019160208410610374575b601f0160051c01905b81811061036957506100b1565b5f815560010161035c565b9091508190610353565b90607f169061009f565b5f80fd5b6040519190601f01601f191682016001600160401b038111838210176102995760405256fe6080806040526004361015610012575f80fd5b5f3560e01c90816306fdde031461069257508063095ea7b31461061057806318160ddd146105f357806323b872dd14610514578063313ce567146104f957806340c10f191461044d57806370a0823114610416578063715018a6146103bb5780638da5cb5b1461039357806395d89b41146102785780639dc29fac146101c1578063a9059cbb14610190578063dd62ed3e146101405763f2fde38b146100b6575f80fd5b3461013c57602036600319011261013c576100cf6107a8565b6100d761086b565b6001600160a01b0316801561012957600580546001600160a01b0319811683179091556001600160a01b03167f8be0079c531659141344cd1fd0a4f28419497f9722a3daafe3b4186f6b6457e05f80a3005b631e4fbdf760e01b5f525f60045260245ffd5b5f80fd5b3461013c57604036600319011261013c576101596107a8565b6101616107be565b6001600160a01b039182165f908152600160209081526040808320949093168252928352819020549051908152f35b3461013c57604036600319011261013c576101b66101ac6107a8565b60243590336107d4565b602060405160018152f35b3461013c57604036600319011261013c576101da6107a8565b602435906101e661086b565b6001600160a01b0316801561026557805f525f60205260405f205482811061024c576020835f947fddf252ad1be2c89b69c2b068fc378daa952ba7f163c4a11628f55a4df523b3ef938587528684520360408620558060025403600255604051908152a3005b9063391434e360e21b5f5260045260245260445260645ffd5b634b637e8f60e11b5f525f60045260245ffd5b3461013c575f36600319011261013c576040515f6004548060011c90600181168015610389575b602083108114610375578285529081156103595750600114610304575b50819003601f01601f191681019067ffffffffffffffff8211818310176102f0576102ec82918260405282610761565b0390f35b634e487b7160e01b5f52604160045260245ffd5b905060045f527f8a35acfbc15ff81a39ae7d344fd709f28e8600b4aa8c65c6b64bfe7fe36bd19b5f905b828210610343575060209150820101826102bc565b600181602092548385880101520191019061032e565b90506020925060ff191682840152151560051b820101826102bc565b634e487b7160e01b5f52602260045260245ffd5b91607f169161029f565b3461013c575f36600319011261013c576005546040516001600160a01b039091168152602090f35b3461013c575f36600319011261013c576103d361086b565b600580546001600160a01b031981169091555f906001600160a01b03167f8be0079c531659141344cd1fd0a4f28419497f9722a3daafe3b4186f6b6457e08280a3005b3461013c57602036600319011261013c576001600160a01b036104376107a8565b165f525f602052602060405f2054604051908152f35b3461013c57604036600319011261013c576104666107a8565b6024359061047261086b565b6001600160a01b03169081156104e657600254908082018092116104d25760207fddf252ad1be2c89b69c2b068fc378daa952ba7f163c4a11628f55a4df523b3ef915f9360025584845283825260408420818154019055604051908152a3005b634e487b7160e01b5f52601160045260245ffd5b63ec442f0560e01b5f525f60045260245ffd5b3461013c575f36600319011261013c57602060405160128152f35b3461013c57606036600319011261013c5761052d6107a8565b6105356107be565b6001600160a01b0382165f818152600160209081526040808320338452909152902054909260443592915f198110610573575b506101b693506107d4565b8381106105d85784156105c55733156105b2576101b6945f52600160205260405f2060018060a01b0333165f526020528360405f209103905584610568565b634a1406b160e11b5f525f60045260245ffd5b63e602df0560e01b5f525f60045260245ffd5b8390637dc7a0d960e11b5f523360045260245260445260645ffd5b3461013c575f36600319011261013c576020600254604051908152f35b3461013c57604036600319011261013c576106296107a8565b6024359033156105c5576001600160a01b03169081156105b257335f52600160205260405f20825f526020528060405f20556040519081527f8c5be1e5ebec7d5bd14f71427d1e84f3dd0314c0f7b2291e5b200ac8c7c3b92560203392a3602060405160018152f35b3461013c575f36600319011261013c575f6003548060011c90600181168015610757575b6020831081146103755782855290811561035957506001146107025750819003601f01601f191681019067ffffffffffffffff8211818310176102f0576102ec82918260405282610761565b905060035f527fc2575a0e9e593c00f959f8c92f12db2869c3395a3b0502d05e2516446f71f85b5f905b828210610741575060209150820101826102bc565b600181602092548385880101520191019061072c565b91607f16916106b6565b9190916020815282518060208301525f5b818110610792575060409293505f838284010152601f8019910116010190565b8060208092870101516040828601015201610772565b600435906001600160a01b038216820361013c57565b602435906001600160a01b038216820361013c57565b6001600160a01b0316908115610265576001600160a01b03169182156104e657815f525f60205260405f205481811061085257817fddf252ad1be2c89b69c2b068fc378daa952ba7f163c4a11628f55a4df523b3ef92602092855f525f84520360405f2055845f525f825260405f20818154019055604051908152a3565b8263391434e360e21b5f5260045260245260445260645ffd5b6005546001600160a01b0316330361087f57565b63118cdaa760e01b5f523360045260245ffdfea164736f6c634300081d000a60803461011e57601f610ec738819003918201601f19168301916001600160401b038311848410176101225780849260609460405283398101031261011e5761004781610136565b90604061005660208301610136565b9101516001600160a01b038116919082900361011e57331561010b575f8054336001600160a01b0319821681178355604051959290916001600160a01b0316907f8be0079c531659141344cd1fd0a4f28419497f9722a3daafe3b4186f6b6457e09080a360018055601e600455600680546001600160a01b03199081166001600160a01b03938416179091556007805482169390921692909217905560088054909116919091179055610d7c908161014b8239f35b631e4fbdf760e01b5f525f60045260245ffd5b5f80fd5b634e487b7160e01b5f52604160045260245ffd5b51906001600160a01b038216820361011e5756fe6080806040526004361015610012575f80fd5b5f905f3560e01c9081630902f1ac14610a9b575080630fc63d1014610a7357806318160ddd14610a5657806319e36f3b14610a395780635aa6e67514610a115780635f64b55b146109e95780635fcbd285146109c1578063715018a61461096a5780638da5cb5b146109435780639c8f9f23146106d95780639cd441da14610530578063ab033ea9146104e6578063da0d6735146103b4578063dc5fa6c514610396578063ddca3f4314610378578063e0441df014610213578063f2fde38b146101855763f4ef90be146100e4575f80fd5b3461018257602036600319011261018257600954600435906001600160a01b0316330361014b5760208161013d6103e87f8c4d35e54a3f2ef1134138fd8ea3daee6a3c89e10d2665996babdf70261e2c76941115610abe565b80600455604051908152a180f35b60405162461bcd60e51b815260206004820152600f60248201526e4f6e6c7920676f7665726e616e636560881b6044820152606490fd5b80fd5b5034610182576020366003190112610182576004356001600160a01b0381169081900361020f576101b4610c4a565b80156101fb5781546001600160a01b03198116821783556001600160a01b03167f8be0079c531659141344cd1fd0a4f28419497f9722a3daafe3b4186f6b6457e08380a380f35b631e4fbdf760e01b82526004829052602482fd5b5080fd5b503461018257602036600319011261018257600435610230610c70565b61023b811515610abe565b60025415158061036d575b61024f90610b89565b60075461026a908290309033906001600160a01b0316610cd3565b60045461271003612710811161035957906127106102a97f5380cf97d8f645d3c4896da60c053458dca03a3a31cec642ac80e1ddf0d8d02a9383610b2a565b046102e36102d0600254926102ca6102c18286610b2a565b91600354610b7c565b90610b51565b916102dc831515610bc8565b8210610c05565b6006546102fc90829033906001600160a01b0316610c90565b61030881600254610b6f565b60025561031782600354610b7c565b600355600754600654604080513381526001600160a01b0393841660208201529081019490945216606083015260808201528060a081015b0390a16001805580f35b634e487b7160e01b83526011600452602483fd5b506003541515610246565b50346101825780600319360112610182576020600454604051908152f35b50346101825780600319360112610182576020600254604051908152f35b5034610182576020366003190112610182576004356103d1610c70565b6103dc811515610abe565b6002541515806104db575b6103f090610b89565b60065461040b908290309033906001600160a01b0316610cd3565b600454612710036127108111610359579061271061044a7f5380cf97d8f645d3c4896da60c053458dca03a3a31cec642ac80e1ddf0d8d02a9383610b2a565b0461046b6102d0600354926102ca6104628286610b2a565b91600254610b7c565b60075461048490829033906001600160a01b0316610c90565b61049082600254610b7c565b60025561049f81600354610b6f565b600355600654600754604080513381526001600160a01b0393841660208201529081019490945216606083015260808201528060a0810161034f565b5060035415156103e7565b5034610182576020366003190112610182576004356001600160a01b0381169081900361020f57610515610c4a565b6bffffffffffffffffffffffff60a01b600954161760095580f35b503461018257604036600319011261018257600435602435610550610c70565b811515806106d0575b61056290610abe565b6005548061068d5750815b610578831515610abe565b600654610593908290309033906001600160a01b0316610cd3565b6105a982303360018060a01b0360075416610cd3565b6105b581600254610b7c565b6002556105c482600354610b7c565b6003556105d383600554610b7c565b60055560085484906001600160a01b0316803b1561020f576040516340c10f1960e01b8152336004820152602481018690529082908290604490829084905af1801561068257610669575b505060408051338152602081019290925281019190915260608101919091527f64b83944e79c3ce8d4c297411de637c3e102d064677aac0c163976ebdcd6f50e90806080810161034f565b8161067391610af4565b61067e57835f61061e565b8380fd5b6040513d84823e3d90fd5b6106b96106b06106a96106a08487610b2a565b60025490610b51565b9284610b2a565b60035490610b51565b808210156106c957505b9161056d565b90506106c3565b50801515610559565b50346108b95760203660031901126108b957600435906106f7610c70565b610702821515610abe565b6008546040516370a0823160e01b81523360048201526001600160a01b0390911690602081602481855afa80156108ae5784915f9161090e575b50106108d0576002546107b5916107bd856107578482610b2a565b6107646005548092610b51565b9586956003546107ad6107808561077b8489610b2a565b610b51565b998a93811515806108c7575b61079590610abe565b80821115806108bd575b6107a890610abe565b610b6f565b600255610b6f565b600355610b6f565b600555803b156108b957604051632770a7eb60e21b815233600482015260248101869052905f908290604490829084905af180156108ae57610876575b5061034f7f1dc8bb69df2b8e91fbdcbfcf93d951b3f0000f085a95fe3f7946d6161439245d9394610836833360018060a01b0360065416610c90565b60075461084f90859033906001600160a01b0316610c90565b60408051338152602081019490945283019390935260608201929092529081906080820190565b7f1dc8bb69df2b8e91fbdcbfcf93d951b3f0000f085a95fe3f7946d6161439245d93505f6108a391610af4565b61034f5f93506107fa565b6040513d5f823e3d90fd5b5f80fd5b508385111561079f565b5084151561078c565b60405162461bcd60e51b8152602060048201526016602482015275696e73756666696369656e74204c5020746f6b656e7360501b6044820152606490fd5b9150506020813d60201161093b575b8161092a60209383610af4565b810103126108b9578390515f61073c565b3d915061091d565b346108b9575f3660031901126108b9575f546040516001600160a01b039091168152602090f35b346108b9575f3660031901126108b957610982610c4a565b5f80546001600160a01b0319811682556001600160a01b03167f8be0079c531659141344cd1fd0a4f28419497f9722a3daafe3b4186f6b6457e08280a3005b346108b9575f3660031901126108b9576008546040516001600160a01b039091168152602090f35b346108b9575f3660031901126108b9576007546040516001600160a01b039091168152602090f35b346108b9575f3660031901126108b9576009546040516001600160a01b039091168152602090f35b346108b9575f3660031901126108b9576020600354604051908152f35b346108b9575f3660031901126108b9576020600554604051908152f35b346108b9575f3660031901126108b9576006546040516001600160a01b039091168152602090f35b346108b9575f3660031901126108b9576040906002546003549082526020820152f35b15610ac557565b60405162461bcd60e51b81526020600482015260076024820152661a5b9d985b1a5960ca1b6044820152606490fd5b90601f8019910116810190811067ffffffffffffffff821117610b1657604052565b634e487b7160e01b5f52604160045260245ffd5b81810292918115918404141715610b3d57565b634e487b7160e01b5f52601160045260245ffd5b8115610b5b570490565b634e487b7160e01b5f52601260045260245ffd5b91908203918211610b3d57565b91908201809211610b3d57565b15610b9057565b60405162461bcd60e51b815260206004820152601060248201526f696e76616c696420726573657276657360801b6044820152606490fd5b15610bcf57565b60405162461bcd60e51b815260206004820152600e60248201526d1a5b9d985b1a59081bdd5d1c1d5d60921b6044820152606490fd5b15610c0c57565b60405162461bcd60e51b8152602060048201526016602482015275696e73756666696369656e74206c697175696469747960501b6044820152606490fd5b5f546001600160a01b03163303610c5d57565b63118cdaa760e01b5f523360045260245ffd5b600260015414610c81576002600155565b633ee5aeb560e01b5f5260045ffd5b60405163a9059cbb60e01b60208201526001600160a01b03929092166024830152604480830193909352918152610cd191610ccc606483610af4565b610d17565b565b6040516323b872dd60e01b60208201526001600160a01b039283166024820152929091166044830152606480830193909352918152610cd191610ccc608483610af4565b905f602091828151910182855af1156108ae575f513d610d6657506001600160a01b0381163b155b610d465750565b635274afe760e01b5f9081526001600160a01b0391909116600452602490fd5b60011415610d3f56fea164736f6c634300081d000aa164736f6c634300081d000a","linkReferences":{}},"methodIdentifiers":{"FEE_DENOMINATOR()":"d73792a9","LAUNCH_FEE()":"09197a81","baseToken()":"c55dae63","cancelLaunch(uint256)":"f61f1a03","contribute(uint256,uint256)":"8c590917","contributions(address,uint256)":"550b521c","createLaunch(address,uint256,uint256,uint256,uint256,uint256)":"e22bbefa","createTokenAndLaunch(string,string,uint256,uint256,uint256,uint256,uint256)":"0b1f6f64","finalizeLaunch(uint256)":"5fb831db","getLaunchCreator(uint256)":"480ed252","getLaunchDetails(uint256)":"d062e2a2","getLaunchToken(uint256)":"a9fa518c","getLaunchTokenInfo(uint256)":"b6dfbc31","isLaunchCancelled(uint256)":"2d2c2421","isLaunchLaunched(uint256)":"a40fe3b0","launchCount()":"27cca59f","launches(uint256)":"7b443a76","liquidityPool()":"665a11ca","owner()":"8da5cb5b","renounceOwnership()":"715018a6","transferOwnership(address)":"f2fde38b","withdrawFees()":"476343ee"},"id":32}