{"abi":[{"type":"constructor","inputs":[{"name":"_tokenA","type":"address","internalType":"contract ERC20"},{"name":"_tokenB","type":"address","internalType":"contract ERC20"},{"name":"_lpToken","type":"address","internalType":"contract LPToken"}],"stateMutability":"nonpayable"},{"type":"function","name":"addLiquidity","inputs":[{"name":"amountA","type":"uint256","internalType":"uint256"},{"name":"amountB","type":"uint256","internalType":"uint256"}],"outputs":[],"stateMutability":"nonpayable"},{"type":"function","name":"fee","inputs":[],"outputs":[{"name":"","type":"uint256","internalType":"uint256"}],"stateMutability":"view"},{"type":"function","name":"getReserves","inputs":[],"outputs":[{"name":"","type":"uint256","internalType":"uint256"},{"name":"","type":"uint256","internalType":"uint256"}],"stateMutability":"view"},{"type":"function","name":"governance","inputs":[],"outputs":[{"name":"","type":"address","internalType":"address"}],"stateMutability":"view"},{"type":"function","name":"lpToken","inputs":[],"outputs":[{"name":"","type":"address","internalType":"contract LPToken"}],"stateMutability":"view"},{"type":"function","name":"owner","inputs":[],"outputs":[{"name":"","type":"address","internalType":"address"}],"stateMutability":"view"},{"type":"function","name":"removeLiquidity","inputs":[{"name":"lpAmount","type":"uint256","internalType":"uint256"}],"outputs":[],"stateMutability":"nonpayable"},{"type":"function","name":"renounceOwnership","inputs":[],"outputs":[],"stateMutability":"nonpayable"},{"type":"function","name":"reserveA","inputs":[],"outputs":[{"name":"","type":"uint256","internalType":"uint256"}],"stateMutability":"view"},{"type":"function","name":"reserveB","inputs":[],"outputs":[{"name":"","type":"uint256","internalType":"uint256"}],"stateMutability":"view"},{"type":"function","name":"setGovernance","inputs":[{"name":"_governance","type":"address","internalType":"address"}],"outputs":[],"stateMutability":"nonpayable"},{"type":"function","name":"setNewFee","inputs":[{"name":"newFee","type":"uint256","internalType":"uint256"}],"outputs":[],"stateMutability":"nonpayable"},{"type":"function","name":"swapAtoB","inputs":[{"name":"amountA","type":"uint256","internalType":"uint256"}],"outputs":[],"stateMutability":"nonpayable"},{"type":"function","name":"swapBtoA","inputs":[{"name":"amountB","type":"uint256","internalType":"uint256"}],"outputs":[],"stateMutability":"nonpayable"},{"type":"function","name":"tokenA","inputs":[],"outputs":[{"name":"","type":"address","internalType":"contract ERC20"}],"stateMutability":"view"},{"type":"function","name":"tokenB","inputs":[],"outputs":[{"name":"","type":"address","internalType":"contract ERC20"}],"stateMutability":"view"},{"type":"function","name":"totalSupply","inputs":[],"outputs":[{"name":"","type":"uint256","internalType":"uint256"}],"stateMutability":"view"},{"type":"function","name":"transferOwnership","inputs":[{"name":"newOwner","type":"address","internalType":"address"}],"outputs":[],"stateMutability":"nonpayable"},{"type":"event","name":"FeeUpdated","inputs":[{"name":"newFee","type":"uint256","indexed":false,"internalType":"uint256"}],"anonymous":false},{"type":"event","name":"LiquidityAdded","inputs":[{"name":"provider","type":"address","indexed":false,"internalType":"address"},{"name":"amountA","type":"uint256","indexed":false,"internalType":"uint256"},{"name":"amountB","type":"uint256","indexed":false,"internalType":"uint256"},{"name":"lpTokens","type":"uint256","indexed":false,"internalType":"uint256"}],"anonymous":false},{"type":"event","name":"LiquidityRemoved","inputs":[{"name":"provider","type":"address","indexed":false,"internalType":"address"},{"name":"amountA","type":"uint256","indexed":false,"internalType":"uint256"},{"name":"amountB","type":"uint256","indexed":false,"internalType":"uint256"},{"name":"lpTokens","type":"uint256","indexed":false,"internalType":"uint256"}],"anonymous":false},{"type":"event","name":"OwnershipTransferred","inputs":[{"name":"previousOwner","type":"address","indexed":true,"internalType":"address"},{"name":"newOwner","type":"address","indexed":true,"internalType":"address"}],"anonymous":false},{"type":"event","name":"Swap","inputs":[{"name":"trader","type":"address","indexed":false,"internalType":"address"},{"name":"tokenIn","type":"address","indexed":false,"internalType":"address"},{"name":"amountIn","type":"uint256","indexed":false,"internalType":"uint256"},{"name":"tokenOut","type":"address","indexed":false,"internalType":"address"},{"name":"amountOut","type":"uint256","indexed":false,"internalType":"uint256"}],"anonymous":false},{"type":"error","name":"OwnableInvalidOwner","inputs":[{"name":"owner","type":"address","internalType":"address"}]},{"type":"error","name":"OwnableUnauthorizedAccount","inputs":[{"name":"account","type":"address","internalType":"address"}]},{"type":"error","name":"ReentrancyGuardReentrantCall","inputs":[]},{"type":"error","name":"SafeERC20FailedOperation","inputs":[{"name":"token","type":"address","internalType":"address"}]}],"bytecode":{"object":"0x60803461011e57601f610ec738819003918201601f19168301916001600160401b038311848410176101225780849260609460405283398101031261011e5761004781610136565b90604061005660208301610136565b9101516001600160a01b038116919082900361011e57331561010b575f8054336001600160a01b0319821681178355604051959290916001600160a01b0316907f8be0079c531659141344cd1fd0a4f28419497f9722a3daafe3b4186f6b6457e09080a360018055601e600455600680546001600160a01b03199081166001600160a01b03938416179091556007805482169390921692909217905560088054909116919091179055610d7c908161014b8239f35b631e4fbdf760e01b5f525f60045260245ffd5b5f80fd5b634e487b7160e01b5f52604160045260245ffd5b51906001600160a01b038216820361011e5756fe6080806040526004361015610012575f80fd5b5f905f3560e01c9081630902f1ac14610a9b575080630fc63d1014610a7357806318160ddd14610a5657806319e36f3b14610a395780635aa6e67514610a115780635f64b55b146109e95780635fcbd285146109c1578063715018a61461096a5780638da5cb5b146109435780639c8f9f23146106d95780639cd441da14610530578063ab033ea9146104e6578063da0d6735146103b4578063dc5fa6c514610396578063ddca3f4314610378578063e0441df014610213578063f2fde38b146101855763f4ef90be146100e4575f80fd5b3461018257602036600319011261018257600954600435906001600160a01b0316330361014b5760208161013d6103e87f8c4d35e54a3f2ef1134138fd8ea3daee6a3c89e10d2665996babdf70261e2c76941115610abe565b80600455604051908152a180f35b60405162461bcd60e51b815260206004820152600f60248201526e4f6e6c7920676f7665726e616e636560881b6044820152606490fd5b80fd5b5034610182576020366003190112610182576004356001600160a01b0381169081900361020f576101b4610c4a565b80156101fb5781546001600160a01b03198116821783556001600160a01b03167f8be0079c531659141344cd1fd0a4f28419497f9722a3daafe3b4186f6b6457e08380a380f35b631e4fbdf760e01b82526004829052602482fd5b5080fd5b503461018257602036600319011261018257600435610230610c70565b61023b811515610abe565b60025415158061036d575b61024f90610b89565b60075461026a908290309033906001600160a01b0316610cd3565b60045461271003612710811161035957906127106102a97f5380cf97d8f645d3c4896da60c053458dca03a3a31cec642ac80e1ddf0d8d02a9383610b2a565b046102e36102d0600254926102ca6102c18286610b2a565b91600354610b7c565b90610b51565b916102dc831515610bc8565b8210610c05565b6006546102fc90829033906001600160a01b0316610c90565b61030881600254610b6f565b60025561031782600354610b7c565b600355600754600654604080513381526001600160a01b0393841660208201529081019490945216606083015260808201528060a081015b0390a16001805580f35b634e487b7160e01b83526011600452602483fd5b506003541515610246565b50346101825780600319360112610182576020600454604051908152f35b50346101825780600319360112610182576020600254604051908152f35b5034610182576020366003190112610182576004356103d1610c70565b6103dc811515610abe565b6002541515806104db575b6103f090610b89565b60065461040b908290309033906001600160a01b0316610cd3565b600454612710036127108111610359579061271061044a7f5380cf97d8f645d3c4896da60c053458dca03a3a31cec642ac80e1ddf0d8d02a9383610b2a565b0461046b6102d0600354926102ca6104628286610b2a565b91600254610b7c565b60075461048490829033906001600160a01b0316610c90565b61049082600254610b7c565b60025561049f81600354610b6f565b600355600654600754604080513381526001600160a01b0393841660208201529081019490945216606083015260808201528060a0810161034f565b5060035415156103e7565b5034610182576020366003190112610182576004356001600160a01b0381169081900361020f57610515610c4a565b6bffffffffffffffffffffffff60a01b600954161760095580f35b503461018257604036600319011261018257600435602435610550610c70565b811515806106d0575b61056290610abe565b6005548061068d5750815b610578831515610abe565b600654610593908290309033906001600160a01b0316610cd3565b6105a982303360018060a01b0360075416610cd3565b6105b581600254610b7c565b6002556105c482600354610b7c565b6003556105d383600554610b7c565b60055560085484906001600160a01b0316803b1561020f576040516340c10f1960e01b8152336004820152602481018690529082908290604490829084905af1801561068257610669575b505060408051338152602081019290925281019190915260608101919091527f64b83944e79c3ce8d4c297411de637c3e102d064677aac0c163976ebdcd6f50e90806080810161034f565b8161067391610af4565b61067e57835f61061e565b8380fd5b6040513d84823e3d90fd5b6106b96106b06106a96106a08487610b2a565b60025490610b51565b9284610b2a565b60035490610b51565b808210156106c957505b9161056d565b90506106c3565b50801515610559565b50346108b95760203660031901126108b957600435906106f7610c70565b610702821515610abe565b6008546040516370a0823160e01b81523360048201526001600160a01b0390911690602081602481855afa80156108ae5784915f9161090e575b50106108d0576002546107b5916107bd856107578482610b2a565b6107646005548092610b51565b9586956003546107ad6107808561077b8489610b2a565b610b51565b998a93811515806108c7575b61079590610abe565b80821115806108bd575b6107a890610abe565b610b6f565b600255610b6f565b600355610b6f565b600555803b156108b957604051632770a7eb60e21b815233600482015260248101869052905f908290604490829084905af180156108ae57610876575b5061034f7f1dc8bb69df2b8e91fbdcbfcf93d951b3f0000f085a95fe3f7946d6161439245d9394610836833360018060a01b0360065416610c90565b60075461084f90859033906001600160a01b0316610c90565b60408051338152602081019490945283019390935260608201929092529081906080820190565b7f1dc8bb69df2b8e91fbdcbfcf93d951b3f0000f085a95fe3f7946d6161439245d93505f6108a391610af4565b61034f5f93506107fa565b6040513d5f823e3d90fd5b5f80fd5b508385111561079f565b5084151561078c565b60405162461bcd60e51b8152602060048201526016602482015275696e73756666696369656e74204c5020746f6b656e7360501b6044820152606490fd5b9150506020813d60201161093b575b8161092a60209383610af4565b810103126108b9578390515f61073c565b3d915061091d565b346108b9575f3660031901126108b9575f546040516001600160a01b039091168152602090f35b346108b9575f3660031901126108b957610982610c4a565b5f80546001600160a01b0319811682556001600160a01b03167f8be0079c531659141344cd1fd0a4f28419497f9722a3daafe3b4186f6b6457e08280a3005b346108b9575f3660031901126108b9576008546040516001600160a01b039091168152602090f35b346108b9575f3660031901126108b9576007546040516001600160a01b039091168152602090f35b346108b9575f3660031901126108b9576009546040516001600160a01b039091168152602090f35b346108b9575f3660031901126108b9576020600354604051908152f35b346108b9575f3660031901126108b9576020600554604051908152f35b346108b9575f3660031901126108b9576006546040516001600160a01b039091168152602090f35b346108b9575f3660031901126108b9576040906002546003549082526020820152f35b15610ac557565b60405162461bcd60e51b81526020600482015260076024820152661a5b9d985b1a5960ca1b6044820152606490fd5b90601f8019910116810190811067ffffffffffffffff821117610b1657604052565b634e487b7160e01b5f52604160045260245ffd5b81810292918115918404141715610b3d57565b634e487b7160e01b5f52601160045260245ffd5b8115610b5b570490565b634e487b7160e01b5f52601260045260245ffd5b91908203918211610b3d57565b91908201809211610b3d57565b15610b9057565b60405162461bcd60e51b815260206004820152601060248201526f696e76616c696420726573657276657360801b6044820152606490fd5b15610bcf57565b60405162461bcd60e51b815260206004820152600e60248201526d1a5b9d985b1a59081bdd5d1c1d5d60921b6044820152606490fd5b15610c0c57565b60405162461bcd60e51b8152602060048201526016602482015275696e73756666696369656e74206c697175696469747960501b6044820152606490fd5b5f546001600160a01b03163303610c5d57565b63118cdaa760e01b5f523360045260245ffd5b600260015414610c81576002600155565b633ee5aeb560e01b5f5260045ffd5b60405163a9059cbb60e01b60208201526001600160a01b03929092166024830152604480830193909352918152610cd191610ccc606483610af4565b610d17565b565b6040516323b872dd60e01b60208201526001600160a01b039283166024820152929091166044830152606480830193909352918152610cd191610ccc608483610af4565b905f602091828151910182855af1156108ae575f513d610d6657506001600160a01b0381163b155b610d465750565b635274afe760e01b5f9081526001600160a01b0391909116600452602490fd5b60011415610d3f56fea164736f6c634300081d000a","linkReferences":{}},"methodIdentifiers":{"addLiquidity(uint256,uint256)":"9cd441da","fee()":"ddca3f43","getReserves()":"0902f1ac","governance()":"5aa6e675","lpToken()":"5fcbd285","owner()":"8da5cb5b","removeLiquidity(uint256)":"9c8f9f23","renounceOwnership()":"715018a6","reserveA()":"dc5fa6c5","reserveB()":"19e36f3b","setGovernance(address)":"ab033ea9","setNewFee(uint256)":"f4ef90be","swapAtoB(uint256)":"da0d6735","swapBtoA(uint256)":"e0441df0","tokenA()":"0fc63d10","tokenB()":"5f64b55b","totalSupply()":"18160ddd","transferOwnership(address)":"f2fde38b"},"id":58}