{"abi":[{"type":"constructor","inputs":[],"stateMutability":"nonpayable"},{"type":"receive","stateMutability":"payable"},{"type":"function","name":"DEFAULT_EXPIRATION","inputs":[],"outputs":[{"name":"","type":"uint256","internalType":"uint256"}],"stateMutability":"view"},{"type":"function","name":"MAX_EXPIRATION","inputs":[],"outputs":[{"name":"","type":"uint256","internalType":"uint256"}],"stateMutability":"view"},{"type":"function","name":"cancelEscrow","inputs":[{"name":"escrowId","type":"uint256","internalType":"uint256"}],"outputs":[],"stateMutability":"nonpayable"},{"type":"function","name":"claimEscrow","inputs":[{"name":"escrowId","type":"uint256","internalType":"uint256"},{"name":"secret","type":"bytes32","internalType":"bytes32"}],"outputs":[],"stateMutability":"nonpayable"},{"type":"function","name":"createEscrow","inputs":[{"name":"token","type":"address","internalType":"address"},{"name":"amount","type":"uint256","internalType":"uint256"},{"name":"expirationTime","type":"uint256","internalType":"uint256"},{"name":"secretHash","type":"bytes32","internalType":"bytes32"}],"outputs":[],"stateMutability":"payable"},{"type":"function","name":"emergencyRecover","inputs":[{"name":"token","type":"address","internalType":"address"},{"name":"amount","type":"uint256","internalType":"uint256"}],"outputs":[],"stateMutability":"nonpayable"},{"type":"function","name":"escrowCount","inputs":[],"outputs":[{"name":"","type":"uint256","internalType":"uint256"}],"stateMutability":"view"},{"type":"function","name":"escrows","inputs":[{"name":"","type":"uint256","internalType":"uint256"}],"outputs":[{"name":"token","type":"address","internalType":"address"},{"name":"sender","type":"address","internalType":"address"},{"name":"amount","type":"uint256","internalType":"uint256"},{"name":"expirationTime","type":"uint256","internalType":"uint256"},{"name":"claimed","type":"bool","internalType":"bool"},{"name":"cancelled","type":"bool","internalType":"bool"},{"name":"secretHash","type":"bytes32","internalType":"bytes32"}],"stateMutability":"view"},{"type":"function","name":"expireEscrow","inputs":[{"name":"escrowId","type":"uint256","internalType":"uint256"}],"outputs":[],"stateMutability":"nonpayable"},{"type":"function","name":"getEscrow","inputs":[{"name":"escrowId","type":"uint256","internalType":"uint256"}],"outputs":[{"name":"token","type":"address","internalType":"address"},{"name":"sender","type":"address","internalType":"address"},{"name":"amount","type":"uint256","internalType":"uint256"},{"name":"expirationTime","type":"uint256","internalType":"uint256"},{"name":"claimed","type":"bool","internalType":"bool"},{"name":"cancelled","type":"bool","internalType":"bool"},{"name":"secretHash","type":"bytes32","internalType":"bytes32"}],"stateMutability":"view"},{"type":"function","name":"getUserEscrows","inputs":[{"name":"user","type":"address","internalType":"address"}],"outputs":[{"name":"","type":"uint256[]","internalType":"uint256[]"}],"stateMutability":"view"},{"type":"function","name":"isClaimable","inputs":[{"name":"escrowId","type":"uint256","internalType":"uint256"}],"outputs":[{"name":"","type":"bool","internalType":"bool"}],"stateMutability":"view"},{"type":"function","name":"isExpired","inputs":[{"name":"escrowId","type":"uint256","internalType":"uint256"}],"outputs":[{"name":"","type":"bool","internalType":"bool"}],"stateMutability":"view"},{"type":"function","name":"owner","inputs":[],"outputs":[{"name":"","type":"address","internalType":"address"}],"stateMutability":"view"},{"type":"function","name":"renounceOwnership","inputs":[],"outputs":[],"stateMutability":"nonpayable"},{"type":"function","name":"transferOwnership","inputs":[{"name":"newOwner","type":"address","internalType":"address"}],"outputs":[],"stateMutability":"nonpayable"},{"type":"function","name":"usedSecrets","inputs":[{"name":"","type":"bytes32","internalType":"bytes32"}],"outputs":[{"name":"","type":"bool","internalType":"bool"}],"stateMutability":"view"},{"type":"function","name":"userEscrows","inputs":[{"name":"","type":"address","internalType":"address"},{"name":"","type":"uint256","internalType":"uint256"}],"outputs":[{"name":"","type":"uint256","internalType":"uint256"}],"stateMutability":"view"},{"type":"event","name":"EscrowCancelled","inputs":[{"name":"escrowId","type":"uint256","indexed":true,"internalType":"uint256"},{"name":"sender","type":"address","indexed":true,"internalType":"address"},{"name":"amount","type":"uint256","indexed":false,"internalType":"uint256"}],"anonymous":false},{"type":"event","name":"EscrowClaimed","inputs":[{"name":"escrowId","type":"uint256","indexed":true,"internalType":"uint256"},{"name":"recipient","type":"address","indexed":true,"internalType":"address"},{"name":"amount","type":"uint256","indexed":false,"internalType":"uint256"}],"anonymous":false},{"type":"event","name":"EscrowCreated","inputs":[{"name":"escrowId","type":"uint256","indexed":true,"internalType":"uint256"},{"name":"sender","type":"address","indexed":true,"internalType":"address"},{"name":"token","type":"address","indexed":false,"internalType":"address"},{"name":"amount","type":"uint256","indexed":false,"internalType":"uint256"},{"name":"expirationTime","type":"uint256","indexed":false,"internalType":"uint256"},{"name":"secretHash","type":"bytes32","indexed":false,"internalType":"bytes32"}],"anonymous":false},{"type":"event","name":"EscrowExpired","inputs":[{"name":"escrowId","type":"uint256","indexed":true,"internalType":"uint256"},{"name":"sender","type":"address","indexed":true,"internalType":"address"},{"name":"amount","type":"uint256","indexed":false,"internalType":"uint256"}],"anonymous":false},{"type":"event","name":"OwnershipTransferred","inputs":[{"name":"previousOwner","type":"address","indexed":true,"internalType":"address"},{"name":"newOwner","type":"address","indexed":true,"internalType":"address"}],"anonymous":false},{"type":"error","name":"OwnableInvalidOwner","inputs":[{"name":"owner","type":"address","internalType":"address"}]},{"type":"error","name":"OwnableUnauthorizedAccount","inputs":[{"name":"account","type":"address","internalType":"address"}]},{"type":"error","name":"ReentrancyGuardReentrantCall","inputs":[]},{"type":"error","name":"SafeERC20FailedOperation","inputs":[{"name":"token","type":"address","internalType":"address"}]}],"bytecode":{"object":"0x6080806040523460755733156062575f8054336001600160a01b0319821681178355916001600160a01b03909116907f8be0079c531659141344cd1fd0a4f28419497f9722a3daafe3b4186f6b6457e09080a36001805561115c908161007a8239f35b631e4fbdf760e01b5f525f60045260245ffd5b5f80fdfe608080604052600436101561001c575b50361561001a575f80fd5b005b5f3560e01c908163012f52ee14610e3e575080635ccea85e14610d8a578063675ac67a14610d6d578063715018a614610d165780637d19e59614610c865780637f944dd014610c2e57806389610a0914610baf5780638da5cb5b14610b885780639639011e14610ae0578063a4516c4814610ab1578063b22067cc14610a93578063bc3a868f1461097d578063d9548e53146108fe578063db46e07514610706578063e0182436146105d4578063e980259b146105b7578063f2fde38b146105325763f41b994f146100ee575f61000f565b608036600319011261052e57610102610ec7565b6024356064356044356101136110cc565b8083156104f85782156104bd57825f52600460205260ff60405f20541661048257806103f157505062278d00420180421161031957925b6001600160a01b031692836103685782340361032d575b6002545f19811461031957600101806002556040519060e082019082821067ffffffffffffffff831117610305576005916040528683526020830133815260408401908782526060850186815260808601925f845260a08701925f845260c08801958a87525f52600360205260405f209760018060a01b039060018060a01b03905116166bffffffffffffffffffffffff60a01b89541617885560018060a01b03905116600188019060018060a01b03166bffffffffffffffffffffffff60a01b825416179055516002870155516003860155600485019151151560ff8019845416911617825551151561ff0082549160081b169061ff00191617905551910155815f52600460205260405f20600160ff19825416179055335f52600560205260405f2060025490805468010000000000000000811015610305576102ab91600182018155610edd565b819291549060031b91821b915f19901b1916179055600254926040519485526020850152604084015260608301527fbf7ce086e8f705b7f76054c3a817eb537f4185f654689ca6bfb2828c20f75dc360803393a360018055005b634e487b7160e01b5f52604160045260245ffd5b634e487b7160e01b5f52601160045260245ffd5b60405162461bcd60e51b815260206004820152601360248201527208aa89040c2dadeeadce840dad2e6dac2e8c6d606b1b6044820152606490fd5b346103ac576103a76040516323b872dd60e01b6020820152336024820152306044820152846064820152606481526103a1608482610f06565b856110ec565b610161565b60405162461bcd60e51b815260206004820152601760248201527f4e6f2045544820666f7220746f6b656e20657363726f770000000000000000006044820152606490fd5b6301e13380949194420180421161031957811161044857421061014a5760405162461bcd60e51b8152602060048201526012602482015271115e1c1a5c985d1a5bdb881a5b881c185cdd60721b6044820152606490fd5b60405162461bcd60e51b815260206004820152601260248201527122bc3834b930ba34b7b7103a37b7903330b960711b6044820152606490fd5b60405162461bcd60e51b815260206004820152601360248201527214d958dc995d08185b1c9958591e481d5cd959606a1b6044820152606490fd5b60405162461bcd60e51b8152602060048201526013602482015272092dcecc2d8d2c840e6cac6e4cae840d0c2e6d606b1b6044820152606490fd5b60405162461bcd60e51b815260206004820152600e60248201526d125b9d985b1a5908185b5bdd5b9d60921b6044820152606490fd5b5f80fd5b3461052e57602036600319011261052e5761054b610ec7565b610553611064565b6001600160a01b031680156105a4575f80546001600160a01b03198116831782556001600160a01b0316907f8be0079c531659141344cd1fd0a4f28419497f9722a3daafe3b4186f6b6457e09080a3005b631e4fbdf760e01b5f525f60045260245ffd5b3461052e575f36600319011261052e57602060405162278d008152f35b3461052e57602036600319011261052e576004356105f06110cc565b5f8181526003602052604090206001810180549192916001600160a01b0316903382036106d45760026020917fdb19fb28f3e1bd98931a09b28e0c217ab5008bfb3cbb1bdd406d994ad534a7359360048701610100815461065460ff821615610fa6565b61066460ff8260081c1615610fe4565b61ff00191617905586546001600160a01b0316806106c15750506106a45f80808060018060a01b03865416878c0154905af161069e610f28565b50611024565b549401546040519081526001600160a01b0390941693a360018055005b6106cf91848901549161108a565b6106a4565b60405162461bcd60e51b815260206004820152600a6024820152692737ba1039b2b73232b960b11b6044820152606490fd5b3461052e57604036600319011261052e576004356107226110cc565b5f8181526003602052604090206001810154610748906001600160a01b03161515610f67565b60048101805461075b60ff821615610fa6565b60ff8160081c166108c6576003830154421161089057604051602081019060243582526020815261078d604082610f06565b51902060058401540361085a5760ff1916600117905580546001600160a01b03168061084257505f8080806002850154335af16107c8610f28565b5015610807576002905b0154906040519182527f264b84d6bb26c82423cfcb91b4220efaba80e38b8ea7a87b58a80fcaf095691260203393a360018055005b60405162461bcd60e51b8152602060048201526013602482015272115512081d1c985b9cd9995c8819985a5b1959606a1b6044820152606490fd5b906108556002928383015490339061108a565b6107d2565b60405162461bcd60e51b815260206004820152600e60248201526d125b9d985b1a59081cd958dc995d60921b6044820152606490fd5b60405162461bcd60e51b815260206004820152600e60248201526d115cd8dc9bddc8195e1c1a5c995960921b6044820152606490fd5b60405162461bcd60e51b815260206004820152601060248201526f115cd8dc9bddc818d85b98d95b1b195960821b6044820152606490fd5b3461052e57602036600319011261052e576004355f526003602052602060405f2060018060a01b036001820154161515908161096d575b8161095a575b8161094c575b506040519015158152f35b600391500154421182610941565b600481015460081c60ff1615915061093b565b600481015460ff16159150610935565b3461052e57602036600319011261052e576004356109996110cc565b5f8181526003602052604090206001810180549192916001600160a01b0316906109c4821515610f67565b60048401908154906109d960ff831615610fa6565b6109e960ff8360081c1615610fe4565b6003860154421115610a5c577fe7dfcfe2d71fd01ef73019ae55a1790d0843aa9d6d2611eb06b0d9bd889260359360209361010060029461ff00191617905560018060a01b0387541680155f146106c15750506106a45f80808060018060a01b03865416878c0154905af161069e610f28565b60405162461bcd60e51b815260206004820152600f60248201526e139bdd08195e1c1a5c9959081e595d608a1b6044820152606490fd5b3461052e575f36600319011261052e5760206040516301e133808152f35b3461052e57602036600319011261052e576004355f526004602052602060ff60405f2054166040519015158152f35b3461052e57604036600319011261052e57610af9610ec7565b60243590610b05611064565b6001600160a01b031680610b7057505f8080809360018060a01b038254165af1610b2d610f28565b5015610b3557005b60405162461bcd60e51b8152602060048201526013602482015272115512081c9958dbdd995c9e4819985a5b1959606a1b6044820152606490fd5b5f5461001a92916001600160a01b039091169061108a565b3461052e575f36600319011261052e575f546040516001600160a01b039091168152602090f35b3461052e57602036600319011261052e576004355f526003602052602060405f2060018060a01b0360018201541615159081610c1e575b81610c0b575b81610bfc57506040519015158152f35b60039150015442111582610941565b600481015460081c60ff16159150610bec565b600481015460ff16159150610be6565b3461052e57604036600319011261052e57610c47610ec7565b6001600160a01b03165f9081526005602052604090208054602435919082101561052e57602091610c7791610edd565b90549060031b1c604051908152f35b3461052e57602036600319011261052e57600480355f90815260036020818152604092839020805460018201546002830154948301549683015460059093015486516001600160a01b039384168152929091169382019390935293840192909252606083019390935260ff8082161515608084015260089190911c16151560a082015260c081019190915260e090f35b3461052e575f36600319011261052e57610d2e611064565b5f80546001600160a01b0319811682556001600160a01b03167f8be0079c531659141344cd1fd0a4f28419497f9722a3daafe3b4186f6b6457e08280a3005b3461052e575f36600319011261052e576020600254604051908152f35b3461052e57602036600319011261052e576001600160a01b03610dab610ec7565b165f52600560205260405f20604051806020835491828152019081935f5260205f20905f5b818110610e285750505081610de6910382610f06565b604051918291602083019060208452518091526040830191905f5b818110610e0f575050500390f35b8251845285945060209384019390920191600101610e01565b8254845260209093019260019283019201610dd0565b3461052e57602036600319011261052e57600480355f9081526003602081815260409283902080546001820154600283015494830154968301546005909301546001600160a01b03928316895291169287019290925292850191909152606084019290925260ff8082161515608085015260089190911c16151560a083015260c082015260e090f35b600435906001600160a01b038216820361052e57565b8054821015610ef2575f5260205f2001905f90565b634e487b7160e01b5f52603260045260245ffd5b90601f8019910116810190811067ffffffffffffffff82111761030557604052565b3d15610f62573d9067ffffffffffffffff82116103055760405191610f57601f8201601f191660200184610f06565b82523d5f602084013e565b606090565b15610f6e57565b60405162461bcd60e51b815260206004820152601060248201526f115cd8dc9bddc81b9bdd08199bdd5b9960821b6044820152606490fd5b15610fad57565b60405162461bcd60e51b815260206004820152600f60248201526e105b1c9958591e4818db185a5b5959608a1b6044820152606490fd5b15610feb57565b60405162461bcd60e51b8152602060048201526011602482015270105b1c9958591e4818d85b98d95b1b1959607a1b6044820152606490fd5b1561102b57565b60405162461bcd60e51b8152602060048201526011602482015270115512081c99599d5b990819985a5b1959607a1b6044820152606490fd5b5f546001600160a01b0316330361107757565b63118cdaa760e01b5f523360045260245ffd5b60405163a9059cbb60e01b60208201526001600160a01b0390921660248301526044808301939093529181526110ca916110c5606483610f06565b6110ec565b565b6002600154146110dd576002600155565b633ee5aeb560e01b5f5260045ffd5b905f602091828151910182855af115611144575f513d61113b57506001600160a01b0381163b155b61111b5750565b635274afe760e01b5f9081526001600160a01b0391909116600452602490fd5b60011415611114565b6040513d5f823e3d90fdfea164736f6c634300081d000a","linkReferences":{}},"methodIdentifiers":{"DEFAULT_EXPIRATION()":"e980259b","MAX_EXPIRATION()":"b22067cc","cancelEscrow(uint256)":"e0182436","claimEscrow(uint256,bytes32)":"db46e075","createEscrow(address,uint256,uint256,bytes32)":"f41b994f","emergencyRecover(address,uint256)":"9639011e","escrowCount()":"675ac67a","escrows(uint256)":"012f52ee","expireEscrow(uint256)":"bc3a868f","getEscrow(uint256)":"7d19e596","getUserEscrows(address)":"5ccea85e","isClaimable(uint256)":"89610a09","isExpired(uint256)":"d9548e53","owner()":"8da5cb5b","renounceOwnership()":"715018a6","transferOwnership(address)":"f2fde38b","usedSecrets(bytes32)":"a4516c48","userEscrows(address,uint256)":"7f944dd0"},"id":31}